{
  "abi": [
    {
      "inputs": [
        {
          "internalType": "uint256",
          "name": "totalSupply_",
          "type": "uint256"
        },
        {
          "internalType": "string",
          "name": "name_",
          "type": "string"
        },
        {
          "internalType": "string",
          "name": "symbol_",
          "type": "string"
        },
        {
          "internalType": "address",
          "name": "admin_",
          "type": "address"
        },
        {
          "internalType": "address",
          "name": "recoveryAdmin_",
          "type": "address"
        },
        {
          "internalType": "uint256",
          "name": "timelockPeriod_",
          "type": "uint256"
        },
        {
          "internalType": "address",
          "name": "lossless_",
          "type": "address"
        }
      ],
      "stateMutability": "nonpayable",
      "type": "constructor"
    },
    {
      "anonymous": false,
      "inputs": [
        {
          "indexed": true,
          "internalType": "address",
          "name": "_owner",
          "type": "address"
        },
        {
          "indexed": true,
          "internalType": "address",
          "name": "_spender",
          "type": "address"
        },
        {
          "indexed": false,
          "internalType": "uint256",
          "name": "_value",
          "type": "uint256"
        }
      ],
      "name": "Approval",
      "type": "event"
    },
    {
      "anonymous": false,
      "inputs": [],
      "name": "LosslessOff",
      "type": "event"
    },
    {
      "anonymous": false,
      "inputs": [],
      "name": "LosslessOn",
      "type": "event"
    },
    {
      "anonymous": false,
      "inputs": [
        {
          "indexed": false,
          "internalType": "uint256",
          "name": "_turnOffDate",
          "type": "uint256"
        }
      ],
      "name": "LosslessTurnOffProposal",
      "type": "event"
    },
    {
      "anonymous": false,
      "inputs": [
        {
          "indexed": true,
          "internalType": "address",
          "name": "_newAdmin",
          "type": "address"
        }
      ],
      "name": "NewAdmin",
      "type": "event"
    },
    {
      "anonymous": false,
      "inputs": [
        {
          "indexed": true,
          "internalType": "address",
          "name": "_newAdmin",
          "type": "address"
        }
      ],
      "name": "NewRecoveryAdmin",
      "type": "event"
    },
    {
      "anonymous": false,
      "inputs": [
        {
          "indexed": true,
          "internalType": "address",
          "name": "_candidate",
          "type": "address"
        }
      ],
      "name": "NewRecoveryAdminProposal",
      "type": "event"
    },
    {
      "anonymous": false,
      "inputs": [
        {
          "indexed": true,
          "internalType": "address",
          "name": "_from",
          "type": "address"
        },
        {
          "indexed": true,
          "internalType": "address",
          "name": "_to",
          "type": "address"
        },
        {
          "indexed": false,
          "internalType": "uint256",
          "name": "_value",
          "type": "uint256"
        }
      ],
      "name": "Transfer",
      "type": "event"
    },
    {
      "inputs": [
        {
          "internalType": "bytes",
          "name": "key",
          "type": "bytes"
        }
      ],
      "name": "acceptRecoveryAdminOwnership",
      "outputs": [],
      "stateMutability": "nonpayable",
      "type": "function"
    },
    {
      "inputs": [],
      "name": "admin",
      "outputs": [
        {
          "internalType": "address",
          "name": "",
          "type": "address"
        }
      ],
      "stateMutability": "view",
      "type": "function"
    },
    {
      "inputs": [
        {
          "internalType": "address",
          "name": "owner",
          "type": "address"
        },
        {
          "internalType": "address",
          "name": "spender",
          "type": "address"
        }
      ],
      "name": "allowance",
      "outputs": [
        {
          "internalType": "uint256",
          "name": "",
          "type": "uint256"
        }
      ],
      "stateMutability": "view",
      "type": "function"
    },
    {
      "inputs": [
        {
          "internalType": "address",
          "name": "spender",
          "type": "address"
        },
        {
          "internalType": "uint256",
          "name": "amount",
          "type": "uint256"
        }
      ],
      "name": "approve",
      "outputs": [
        {
          "internalType": "bool",
          "name": "",
          "type": "bool"
        }
      ],
      "stateMutability": "nonpayable",
      "type": "function"
    },
    {
      "inputs": [
        {
          "internalType": "address",
          "name": "account",
          "type": "address"
        }
      ],
      "name": "balanceOf",
      "outputs": [
        {
          "internalType": "uint256",
          "name": "",
          "type": "uint256"
        }
      ],
      "stateMutability": "view",
      "type": "function"
    },
    {
      "inputs": [],
      "name": "decimals",
      "outputs": [
        {
          "internalType": "uint8",
          "name": "",
          "type": "uint8"
        }
      ],
      "stateMutability": "view",
      "type": "function"
    },
    {
      "inputs": [
        {
          "internalType": "address",
          "name": "spender",
          "type": "address"
        },
        {
          "internalType": "uint256",
          "name": "subtractedValue",
          "type": "uint256"
        }
      ],
      "name": "decreaseAllowance",
      "outputs": [
        {
          "internalType": "bool",
          "name": "",
          "type": "bool"
        }
      ],
      "stateMutability": "nonpayable",
      "type": "function"
    },
    {
      "inputs": [],
      "name": "executeLosslessTurnOff",
      "outputs": [],
      "stateMutability": "nonpayable",
      "type": "function"
    },
    {
      "inputs": [],
      "name": "executeLosslessTurnOn",
      "outputs": [],
      "stateMutability": "nonpayable",
      "type": "function"
    },
    {
      "inputs": [],
      "name": "getAdmin",
      "outputs": [
        {
          "internalType": "address",
          "name": "",
          "type": "address"
        }
      ],
      "stateMutability": "view",
      "type": "function"
    },
    {
      "inputs": [
        {
          "internalType": "address",
          "name": "spender",
          "type": "address"
        },
        {
          "internalType": "uint256",
          "name": "addedValue",
          "type": "uint256"
        }
      ],
      "name": "increaseAllowance",
      "outputs": [
        {
          "internalType": "bool",
          "name": "",
          "type": "bool"
        }
      ],
      "stateMutability": "nonpayable",
      "type": "function"
    },
    {
      "inputs": [],
      "name": "isLosslessOn",
      "outputs": [
        {
          "internalType": "bool",
          "name": "",
          "type": "bool"
        }
      ],
      "stateMutability": "view",
      "type": "function"
    },
    {
      "inputs": [],
      "name": "lossless",
      "outputs": [
        {
          "internalType": "contract ILssController",
          "name": "",
          "type": "address"
        }
      ],
      "stateMutability": "view",
      "type": "function"
    },
    {
      "inputs": [],
      "name": "losslessTurnOffTimestamp",
      "outputs": [
        {
          "internalType": "uint256",
          "name": "",
          "type": "uint256"
        }
      ],
      "stateMutability": "view",
      "type": "function"
    },
    {
      "inputs": [],
      "name": "name",
      "outputs": [
        {
          "internalType": "string",
          "name": "",
          "type": "string"
        }
      ],
      "stateMutability": "view",
      "type": "function"
    },
    {
      "inputs": [],
      "name": "proposeLosslessTurnOff",
      "outputs": [],
      "stateMutability": "nonpayable",
      "type": "function"
    },
    {
      "inputs": [],
      "name": "recoveryAdmin",
      "outputs": [
        {
          "internalType": "address",
          "name": "",
          "type": "address"
        }
      ],
      "stateMutability": "view",
      "type": "function"
    },
    {
      "inputs": [
        {
          "internalType": "address",
          "name": "newAdmin",
          "type": "address"
        }
      ],
      "name": "setLosslessAdmin",
      "outputs": [],
      "stateMutability": "nonpayable",
      "type": "function"
    },
    {
      "inputs": [],
      "name": "symbol",
      "outputs": [
        {
          "internalType": "string",
          "name": "",
          "type": "string"
        }
      ],
      "stateMutability": "view",
      "type": "function"
    },
    {
      "inputs": [],
      "name": "timelockPeriod",
      "outputs": [
        {
          "internalType": "uint256",
          "name": "",
          "type": "uint256"
        }
      ],
      "stateMutability": "view",
      "type": "function"
    },
    {
      "inputs": [],
      "name": "totalSupply",
      "outputs": [
        {
          "internalType": "uint256",
          "name": "",
          "type": "uint256"
        }
      ],
      "stateMutability": "view",
      "type": "function"
    },
    {
      "inputs": [
        {
          "internalType": "address",
          "name": "recipient",
          "type": "address"
        },
        {
          "internalType": "uint256",
          "name": "amount",
          "type": "uint256"
        }
      ],
      "name": "transfer",
      "outputs": [
        {
          "internalType": "bool",
          "name": "",
          "type": "bool"
        }
      ],
      "stateMutability": "nonpayable",
      "type": "function"
    },
    {
      "inputs": [
        {
          "internalType": "address",
          "name": "sender",
          "type": "address"
        },
        {
          "internalType": "address",
          "name": "recipient",
          "type": "address"
        },
        {
          "internalType": "uint256",
          "name": "amount",
          "type": "uint256"
        }
      ],
      "name": "transferFrom",
      "outputs": [
        {
          "internalType": "bool",
          "name": "",
          "type": "bool"
        }
      ],
      "stateMutability": "nonpayable",
      "type": "function"
    },
    {
      "inputs": [
        {
          "internalType": "address[]",
          "name": "from",
          "type": "address[]"
        }
      ],
      "name": "transferOutBlacklistedFunds",
      "outputs": [],
      "stateMutability": "nonpayable",
      "type": "function"
    },
    {
      "inputs": [
        {
          "internalType": "address",
          "name": "candidate",
          "type": "address"
        },
        {
          "internalType": "bytes32",
          "name": "keyHash",
          "type": "bytes32"
        }
      ],
      "name": "transferRecoveryAdminOwnership",
      "outputs": [],
      "stateMutability": "nonpayable",
      "type": "function"
    }
  ],
  "evm": {
    "bytecode": {
      "linkReferences": {},
      "object": "60806040526001600b60006101000a81548160ff0219169083151502179055503480156200002c57600080fd5b50604051620032c6380380620032c683398181016040528101906200005291906200046c565b6200007362000066620001ce60201b60201c565b88620001d660201b60201c565b85600390805190602001906200008b9291906200031c565b508460049080519060200190620000a49291906200031c565b5083600860006101000a81548173ffffffffffffffffffffffffffffffffffffffff021916908373ffffffffffffffffffffffffffffffffffffffff16021790555082600560006101000a81548173ffffffffffffffffffffffffffffffffffffffff021916908373ffffffffffffffffffffffffffffffffffffffff1602179055506000600660006101000a81548173ffffffffffffffffffffffffffffffffffffffff021916908373ffffffffffffffffffffffffffffffffffffffff1602179055506000600781905550816009819055506000600a8190555080600b60016101000a81548173ffffffffffffffffffffffffffffffffffffffff021916908373ffffffffffffffffffffffffffffffffffffffff160217905550505050505050506200086a565b600033905090565b600073ffffffffffffffffffffffffffffffffffffffff168273ffffffffffffffffffffffffffffffffffffffff16141562000249576040517f08c379a0000000000000000000000000000000000000000000000000000000008152600401620002409062000583565b60405180910390fd5b80600260008282546200025d919062000632565b92505081905550806000808473ffffffffffffffffffffffffffffffffffffffff1673ffffffffffffffffffffffffffffffffffffffff168152602001908152602001600020600082825401925050819055508173ffffffffffffffffffffffffffffffffffffffff16600073ffffffffffffffffffffffffffffffffffffffff167fddf252ad1be2c89b69c2b068fc378daa952ba7f163c4a11628f55a4df523b3ef83604051620003109190620005a5565b60405180910390a35050565b8280546200032a9062000703565b90600052602060002090601f0160209004810192826200034e57600085556200039a565b82601f106200036957805160ff19168380011785556200039a565b828001600101855582156200039a579182015b82811115620003995782518255916020019190600101906200037c565b5b509050620003a99190620003ad565b5090565b5b80821115620003c8576000816000905550600101620003ae565b5090565b6000620003e3620003dd84620005eb565b620005c2565b905082815260208101848484011115620003fc57600080fd5b62000409848285620006cd565b509392505050565b600081519050620004228162000836565b92915050565b600082601f8301126200043a57600080fd5b81516200044c848260208601620003cc565b91505092915050565b600081519050620004668162000850565b92915050565b600080600080600080600060e0888a0312156200048857600080fd5b6000620004988a828b0162000455565b975050602088015167ffffffffffffffff811115620004b657600080fd5b620004c48a828b0162000428565b965050604088015167ffffffffffffffff811115620004e257600080fd5b620004f08a828b0162000428565b9550506060620005038a828b0162000411565b9450506080620005168a828b0162000411565b93505060a0620005298a828b0162000455565b92505060c06200053c8a828b0162000411565b91505092959891949750929550565b60006200055a60208362000621565b915062000567826200080d565b602082019050919050565b6200057d81620006c3565b82525050565b600060208201905081810360008301526200059e816200054b565b9050919050565b6000602082019050620005bc600083018462000572565b92915050565b6000620005ce620005e1565b9050620005dc828262000739565b919050565b6000604051905090565b600067ffffffffffffffff821115620006095762000608620007cd565b5b6200061482620007fc565b9050602081019050919050565b600082825260208201905092915050565b60006200063f82620006c3565b91506200064c83620006c3565b9250827fffffffffffffffffffffffffffffffffffffffffffffffffffffffffffffffff038211156200068457620006836200076f565b5b828201905092915050565b60006200069c82620006a3565b9050919050565b600073ffffffffffffffffffffffffffffffffffffffff82169050919050565b6000819050919050565b60005b83811015620006ed578082015181840152602081019050620006d0565b83811115620006fd576000848401525b50505050565b600060028204905060018216806200071c57607f821691505b602082108114156200073357620007326200079e565b5b50919050565b6200074482620007fc565b810181811067ffffffffffffffff82111715620007665762000765620007cd565b5b80604052505050565b7f4e487b7100000000000000000000000000000000000000000000000000000000600052601160045260246000fd5b7f4e487b7100000000000000000000000000000000000000000000000000000000600052602260045260246000fd5b7f4e487b7100000000000000000000000000000000000000000000000000000000600052604160045260246000fd5b6000601f19601f8301169050919050565b7f4c45524332303a206d696e7420746f20746865207a65726f2061646472657373600082015250565b62000841816200068f565b81146200084d57600080fd5b50565b6200085b81620006c3565b81146200086757600080fd5b50565b612a4c806200087a6000396000f3fe608060405234801561001057600080fd5b50600436106101735760003560e01c80636e9960c3116100de578063a9059cbb11610097578063ccfa214f11610071578063ccfa214f1461042a578063d6e242b814610448578063dd62ed3e14610452578063f851a4401461048257610173565b8063a9059cbb146103d4578063b38fe95714610404578063b5c228771461040e57610173565b80636e9960c31461030057806370a082311461031e57806393310ffe1461034e578063936af9111461036a57806395d89b4114610386578063a457c2d7146103a457610173565b8063313ce56711610130578063313ce5671461024e57806334f6ebf51461026c578063395093511461028a5780635b8a194a146102ba5780635f6529a3146102c457806361086b00146102e257610173565b806306fdde0314610178578063095ea7b31461019657806318160ddd146101c657806323b872dd146101e45780632baa3c9e146102145780632ecaf67514610230575b600080fd5b6101806104a0565b60405161018d9190612221565b60405180910390f35b6101b060048036038101906101ab9190611e24565b610532565b6040516101bd91906121eb565b60405180910390f35b6101ce610602565b6040516101db9190612403565b60405180910390f35b6101fe60048036038101906101f99190611d99565b61060c565b60405161020b91906121eb565b60405180910390f35b61022e60048036038101906102299190611d34565b6107c3565b005b610238610972565b6040516102459190612403565b60405180910390f35b610256610978565b604051610263919061241e565b60405180910390f35b610274610981565b6040516102819190612206565b60405180910390f35b6102a4600480360381019061029f9190611e24565b6109a7565b6040516102b191906121eb565b60405180910390f35b6102c2610b05565b005b6102cc610c3d565b6040516102d99190612154565b60405180910390f35b6102ea610c63565b6040516102f79190612403565b60405180910390f35b610308610c69565b6040516103159190612154565b60405180910390f35b61033860048036038101906103339190611d34565b610c93565b6040516103459190612403565b60405180910390f35b61036860048036038101906103639190611de8565b610cdb565b005b610384600480360381019061037f9190611e60565b610e01565b005b61038e6110a7565b60405161039b9190612221565b60405180910390f35b6103be60048036038101906103b99190611e24565b611139565b6040516103cb91906121eb565b60405180910390f35b6103ee60048036038101906103e99190611e24565b6112e0565b6040516103fb91906121eb565b60405180910390f35b61040c6113b0565b005b61042860048036038101906104239190611ea5565b611523565b005b610432611712565b60405161043f91906121eb565b60405180910390f35b610450611725565b005b61046c60048036038101906104679190611d5d565b61189f565b6040516104799190612403565b60405180910390f35b61048a611926565b6040516104979190612154565b60405180910390f35b6060600380546104af906125fa565b80601f01602080910402602001604051908101604052809291908181526020018280546104db906125fa565b80156105285780601f106104fd57610100808354040283529160200191610528565b820191906000526020600020905b81548152906001019060200180831161050b57829003601f168201915b5050505050905090565b60008282600b60009054906101000a900460ff16156105e457600b60019054906101000a900473ffffffffffffffffffffffffffffffffffffffff1673ffffffffffffffffffffffffffffffffffffffff166347abf3be61059161194c565b84846040518463ffffffff1660e01b81526004016105b1939291906121b4565b600060405180830381600087803b1580156105cb57600080fd5b505af11580156105df573d6000803e3d6000fd5b505050505b6105f66105ef61194c565b8686611954565b60019250505092915050565b6000600254905090565b6000838383600b60009054906101000a900460ff16156106c157600b60019054906101000a900473ffffffffffffffffffffffffffffffffffffffff1673ffffffffffffffffffffffffffffffffffffffff1663379f5c6961066c61194c565b8585856040518563ffffffff1660e01b815260040161068e949392919061216f565b600060405180830381600087803b1580156106a857600080fd5b505af11580156106bc573d6000803e3d6000fd5b505050505b6000600160008973ffffffffffffffffffffffffffffffffffffffff1673ffffffffffffffffffffffffffffffffffffffff168152602001908152602001600020600061070c61194c565b73ffffffffffffffffffffffffffffffffffffffff1673ffffffffffffffffffffffffffffffffffffffff1681526020019081526020016000205490508581101561078c576040517f08c379a0000000000000000000000000000000000000000000000000000000008152600401610783906122a3565b60405180910390fd5b610797888888611a3f565b6107b4886107a361194c565b88846107af9190612501565b611954565b60019450505050509392505050565b600560009054906101000a900473ffffffffffffffffffffffffffffffffffffffff1673ffffffffffffffffffffffffffffffffffffffff1661080461194c565b73ffffffffffffffffffffffffffffffffffffffff161461085a576040517f08c379a000000000000000000000000000000000000000000000000000000000815260040161085190612363565b60405180910390fd5b600860009054906101000a900473ffffffffffffffffffffffffffffffffffffffff1673ffffffffffffffffffffffffffffffffffffffff168173ffffffffffffffffffffffffffffffffffffffff1614156108eb576040517f08c379a00000000000000000000000000000000000000000000000000000000081526004016108e290612243565b60405180910390fd5b8073ffffffffffffffffffffffffffffffffffffffff167f71614071b88dee5e0b2ae578a9dd7b2ebbe9ae832ba419dc0242cd065a290b6c60405160405180910390a280600860006101000a81548173ffffffffffffffffffffffffffffffffffffffff021916908373ffffffffffffffffffffffffffffffffffffffff16021790555050565b60095481565b60006012905090565b600b60019054906101000a900473ffffffffffffffffffffffffffffffffffffffff1681565b60008282600b60009054906101000a900460ff1615610a5957600b60019054906101000a900473ffffffffffffffffffffffffffffffffffffffff1673ffffffffffffffffffffffffffffffffffffffff1663cf5961bb610a0661194c565b84846040518463ffffffff1660e01b8152600401610a26939291906121b4565b600060405180830381600087803b158015610a4057600080fd5b505af1158015610a54573d6000803e3d6000fd5b505050505b610af9610a6461194c565b868660016000610a7261194c565b73ffffffffffffffffffffffffffffffffffffffff1673ffffffffffffffffffffffffffffffffffffffff16815260200190815260200160002060008a73ffffffffffffffffffffffffffffffffffffffff1673ffffffffffffffffffffffffffffffffffffffff16815260200190815260200160002054610af491906124ab565b611954565b60019250505092915050565b600560009054906101000a900473ffffffffffffffffffffffffffffffffffffffff1673ffffffffffffffffffffffffffffffffffffffff16610b4661194c565b73ffffffffffffffffffffffffffffffffffffffff1614610b9c576040517f08c379a0000000000000000000000000000000000000000000000000000000008152600401610b9390612363565b60405180910390fd5b600b60009054906101000a900460ff1615610bec576040517f08c379a0000000000000000000000000000000000000000000000000000000008152600401610be390612383565b60405180910390fd5b6000600a819055506001600b60006101000a81548160ff0219169083151502179055507f1ba3b66404043da8297d0b876fa6464f2cb127edfc6626308046d4503028322b60405160405180910390a1565b600560009054906101000a900473ffffffffffffffffffffffffffffffffffffffff1681565b600a5481565b6000600860009054906101000a900473ffffffffffffffffffffffffffffffffffffffff16905090565b60008060008373ffffffffffffffffffffffffffffffffffffffff1673ffffffffffffffffffffffffffffffffffffffff168152602001908152602001600020549050919050565b600560009054906101000a900473ffffffffffffffffffffffffffffffffffffffff1673ffffffffffffffffffffffffffffffffffffffff16610d1c61194c565b73ffffffffffffffffffffffffffffffffffffffff1614610d72576040517f08c379a0000000000000000000000000000000000000000000000000000000008152600401610d6990612363565b60405180910390fd5b81600660006101000a81548173ffffffffffffffffffffffffffffffffffffffff021916908373ffffffffffffffffffffffffffffffffffffffff160217905550806007819055508173ffffffffffffffffffffffffffffffffffffffff167f6c591da8da2f6e69746d7d9ae61c27ee29fbe303798141b4942ae2aef54274b160405160405180910390a25050565b600b60019054906101000a900473ffffffffffffffffffffffffffffffffffffffff1673ffffffffffffffffffffffffffffffffffffffff16610e4261194c565b73ffffffffffffffffffffffffffffffffffffffff1614610e98576040517f08c379a0000000000000000000000000000000000000000000000000000000008152600401610e8f906123c3565b60405180910390fd5b60008282905090506000805b82811015611029576000858583818110610ee7577f4e487b7100000000000000000000000000000000000000000000000000000000600052603260045260246000fd5b9050602002016020810190610efc9190611d34565b905060008060008373ffffffffffffffffffffffffffffffffffffffff1673ffffffffffffffffffffffffffffffffffffffff16815260200190815260200160002054905060008060008473ffffffffffffffffffffffffffffffffffffffff1673ffffffffffffffffffffffffffffffffffffffff168152602001908152602001600020819055508084610f9191906124ab565b9350600b60019054906101000a900473ffffffffffffffffffffffffffffffffffffffff1673ffffffffffffffffffffffffffffffffffffffff168273ffffffffffffffffffffffffffffffffffffffff167fddf252ad1be2c89b69c2b068fc378daa952ba7f163c4a11628f55a4df523b3ef836040516110129190612403565b60405180910390a382806001019350505050610ea4565b5080600080600b60019054906101000a900473ffffffffffffffffffffffffffffffffffffffff1673ffffffffffffffffffffffffffffffffffffffff1673ffffffffffffffffffffffffffffffffffffffff168152602001908152602001600020600082825461109a91906124ab565b9250508190555050505050565b6060600480546110b6906125fa565b80601f01602080910402602001604051908101604052809291908181526020018280546110e2906125fa565b801561112f5780601f106111045761010080835404028352916020019161112f565b820191906000526020600020905b81548152906001019060200180831161111257829003601f168201915b5050505050905090565b60008282600b60009054906101000a900460ff16156111eb57600b60019054906101000a900473ffffffffffffffffffffffffffffffffffffffff1673ffffffffffffffffffffffffffffffffffffffff1663568c75a961119861194c565b84846040518463ffffffff1660e01b81526004016111b8939291906121b4565b600060405180830381600087803b1580156111d257600080fd5b505af11580156111e6573d6000803e3d6000fd5b505050505b6000600160006111f961194c565b73ffffffffffffffffffffffffffffffffffffffff1673ffffffffffffffffffffffffffffffffffffffff16815260200190815260200160002060008773ffffffffffffffffffffffffffffffffffffffff1673ffffffffffffffffffffffffffffffffffffffff168152602001908152602001600020549050848110156112b6576040517f08c379a00000000000000000000000000000000000000000000000000000000081526004016112ad906123e3565b60405180910390fd5b6112d36112c161194c565b8787846112ce9190612501565b611954565b6001935050505092915050565b60008282600b60009054906101000a900460ff161561139257600b60019054906101000a900473ffffffffffffffffffffffffffffffffffffffff1673ffffffffffffffffffffffffffffffffffffffff16631ffb811f61133f61194c565b84846040518463ffffffff1660e01b815260040161135f939291906121b4565b600060405180830381600087803b15801561137957600080fd5b505af115801561138d573d6000803e3d6000fd5b505050505b6113a461139d61194c565b8686611a3f565b60019250505092915050565b600560009054906101000a900473ffffffffffffffffffffffffffffffffffffffff1673ffffffffffffffffffffffffffffffffffffffff166113f161194c565b73ffffffffffffffffffffffffffffffffffffffff1614611447576040517f08c379a000000000000000000000000000000000000000000000000000000000815260040161143e90612363565b60405180910390fd5b6000600a54141561148d576040517f08c379a0000000000000000000000000000000000000000000000000000000008152600401611484906122e3565b60405180910390fd5b42600a5411156114d2576040517f08c379a00000000000000000000000000000000000000000000000000000000081526004016114c990612263565b60405180910390fd5b6000600b60006101000a81548160ff0219169083151502179055506000600a819055507f3eb72350c9c7928d31e9ab450bfff2c159434aa4b82658a7d8eae7f109cb4e7b60405160405180910390a1565b600660009054906101000a900473ffffffffffffffffffffffffffffffffffffffff1673ffffffffffffffffffffffffffffffffffffffff1661156461194c565b73ffffffffffffffffffffffffffffffffffffffff16146115ba576040517f08c379a00000000000000000000000000000000000000000000000000000000081526004016115b190612323565b60405180910390fd5b600754818051906020012014611605576040517f08c379a00000000000000000000000000000000000000000000000000000000081526004016115fc906122c3565b60405180910390fd5b600660009054906101000a900473ffffffffffffffffffffffffffffffffffffffff1673ffffffffffffffffffffffffffffffffffffffff167fb94bba6936ec7f75ee931dadf6e1a4d66b43d09b6fa0178fb13df9b77fb5841f60405160405180910390a2600660009054906101000a900473ffffffffffffffffffffffffffffffffffffffff16600560006101000a81548173ffffffffffffffffffffffffffffffffffffffff021916908373ffffffffffffffffffffffffffffffffffffffff1602179055506000600660006101000a81548173ffffffffffffffffffffffffffffffffffffffff021916908373ffffffffffffffffffffffffffffffffffffffff16021790555050565b600b60009054906101000a900460ff1681565b600560009054906101000a900473ffffffffffffffffffffffffffffffffffffffff1673ffffffffffffffffffffffffffffffffffffffff1661176661194c565b73ffffffffffffffffffffffffffffffffffffffff16146117bc576040517f08c379a00000000000000000000000000000000000000000000000000000000081526004016117b390612363565b60405180910390fd5b6000600a5414611801576040517f08c379a00000000000000000000000000000000000000000000000000000000081526004016117f890612343565b60405180910390fd5b600b60009054906101000a900460ff16611850576040517f08c379a0000000000000000000000000000000000000000000000000000000008152600401611847906123a3565b60405180910390fd5b6009544261185e91906124ab565b600a819055507f6ca688e6e3ddd707280140b2bf0106afe883689b6c74e68cbd517576dd9c245a600a546040516118959190612403565b60405180910390a1565b6000600160008473ffffffffffffffffffffffffffffffffffffffff1673ffffffffffffffffffffffffffffffffffffffff16815260200190815260200160002060008373ffffffffffffffffffffffffffffffffffffffff1673ffffffffffffffffffffffffffffffffffffffff16815260200190815260200160002054905092915050565b600860009054906101000a900473ffffffffffffffffffffffffffffffffffffffff1681565b600033905090565b80600160008573ffffffffffffffffffffffffffffffffffffffff1673ffffffffffffffffffffffffffffffffffffffff16815260200190815260200160002060008473ffffffffffffffffffffffffffffffffffffffff1673ffffffffffffffffffffffffffffffffffffffff168152602001908152602001600020819055508173ffffffffffffffffffffffffffffffffffffffff168373ffffffffffffffffffffffffffffffffffffffff167f8c5be1e5ebec7d5bd14f71427d1e84f3dd0314c0f7b2291e5b200ac8c7c3b92583604051611a329190612403565b60405180910390a3505050565b600073ffffffffffffffffffffffffffffffffffffffff168373ffffffffffffffffffffffffffffffffffffffff161415611aaf576040517f08c379a0000000000000000000000000000000000000000000000000000000008152600401611aa690612303565b60405180910390fd5b60008060008573ffffffffffffffffffffffffffffffffffffffff1673ffffffffffffffffffffffffffffffffffffffff16815260200190815260200160002054905081811015611b35576040517f08c379a0000000000000000000000000000000000000000000000000000000008152600401611b2c90612283565b60405180910390fd5b8181611b419190612501565b6000808673ffffffffffffffffffffffffffffffffffffffff1673ffffffffffffffffffffffffffffffffffffffff16815260200190815260200160002081905550816000808573ffffffffffffffffffffffffffffffffffffffff1673ffffffffffffffffffffffffffffffffffffffff1681526020019081526020016000206000828254611bd191906124ab565b925050819055508273ffffffffffffffffffffffffffffffffffffffff168473ffffffffffffffffffffffffffffffffffffffff167fddf252ad1be2c89b69c2b068fc378daa952ba7f163c4a11628f55a4df523b3ef84604051611c359190612403565b60405180910390a350505050565b6000611c56611c518461245e565b612439565b905082815260208101848484011115611c6e57600080fd5b611c798482856125b8565b509392505050565b600081359050611c90816129d1565b92915050565b60008083601f840112611ca857600080fd5b8235905067ffffffffffffffff811115611cc157600080fd5b602083019150836020820283011115611cd957600080fd5b9250929050565b600081359050611cef816129e8565b92915050565b600082601f830112611d0657600080fd5b8135611d16848260208601611c43565b91505092915050565b600081359050611d2e816129ff565b92915050565b600060208284031215611d4657600080fd5b6000611d5484828501611c81565b91505092915050565b60008060408385031215611d7057600080fd5b6000611d7e85828601611c81565b9250506020611d8f85828601611c81565b9150509250929050565b600080600060608486031215611dae57600080fd5b6000611dbc86828701611c81565b9350506020611dcd86828701611c81565b9250506040611dde86828701611d1f565b9150509250925092565b60008060408385031215611dfb57600080fd5b6000611e0985828601611c81565b9250506020611e1a85828601611ce0565b9150509250929050565b60008060408385031215611e3757600080fd5b6000611e4585828601611c81565b9250506020611e5685828601611d1f565b9150509250929050565b60008060208385031215611e7357600080fd5b600083013567ffffffffffffffff811115611e8d57600080fd5b611e9985828601611c96565b92509250509250929050565b600060208284031215611eb757600080fd5b600082013567ffffffffffffffff811115611ed157600080fd5b611edd84828501611cf5565b91505092915050565b611eef81612535565b82525050565b611efe81612547565b82525050565b611f0d81612594565b82525050565b6000611f1e8261248f565b611f28818561249a565b9350611f388185602086016125c7565b611f41816126ea565b840191505092915050565b6000611f59601f8361249a565b9150611f64826126fb565b602082019050919050565b6000611f7c601d8361249a565b9150611f8782612724565b602082019050919050565b6000611f9f60278361249a565b9150611faa8261274d565b604082019050919050565b6000611fc260298361249a565b9150611fcd8261279c565b604082019050919050565b6000611fe560138361249a565b9150611ff0826127eb565b602082019050919050565b6000612008601c8361249a565b915061201382612814565b602082019050919050565b600061202b60268361249a565b91506120368261283d565b604082019050919050565b600061204e60198361249a565b91506120598261288c565b602082019050919050565b600061207160208361249a565b915061207c826128b5565b602082019050919050565b6000612094601e8361249a565b915061209f826128de565b602082019050919050565b60006120b7601b8361249a565b91506120c282612907565b602082019050919050565b60006120da601c8361249a565b91506120e582612930565b602082019050919050565b60006120fd601e8361249a565b915061210882612959565b602082019050919050565b600061212060268361249a565b915061212b82612982565b604082019050919050565b61213f8161257d565b82525050565b61214e81612587565b82525050565b60006020820190506121696000830184611ee6565b92915050565b60006080820190506121846000830187611ee6565b6121916020830186611ee6565b61219e6040830185611ee6565b6121ab6060830184612136565b95945050505050565b60006060820190506121c96000830186611ee6565b6121d66020830185611ee6565b6121e36040830184612136565b949350505050565b60006020820190506122006000830184611ef5565b92915050565b600060208201905061221b6000830184611f04565b92915050565b6000602082019050818103600083015261223b8184611f13565b905092915050565b6000602082019050818103600083015261225c81611f4c565b9050919050565b6000602082019050818103600083015261227c81611f6f565b9050919050565b6000602082019050818103600083015261229c81611f92565b9050919050565b600060208201905081810360008301526122bc81611fb5565b9050919050565b600060208201905081810360008301526122dc81611fd8565b9050919050565b600060208201905081810360008301526122fc81611ffb565b9050919050565b6000602082019050818103600083015261231c8161201e565b9050919050565b6000602082019050818103600083015261233c81612041565b9050919050565b6000602082019050818103600083015261235c81612064565b9050919050565b6000602082019050818103600083015261237c81612087565b9050919050565b6000602082019050818103600083015261239c816120aa565b9050919050565b600060208201905081810360008301526123bc816120cd565b9050919050565b600060208201905081810360008301526123dc816120f0565b9050919050565b600060208201905081810360008301526123fc81612113565b9050919050565b60006020820190506124186000830184612136565b92915050565b60006020820190506124336000830184612145565b92915050565b6000612443612454565b905061244f828261262c565b919050565b6000604051905090565b600067ffffffffffffffff821115612479576124786126bb565b5b612482826126ea565b9050602081019050919050565b600081519050919050565b600082825260208201905092915050565b60006124b68261257d565b91506124c18361257d565b9250827fffffffffffffffffffffffffffffffffffffffffffffffffffffffffffffffff038211156124f6576124f561265d565b5b828201905092915050565b600061250c8261257d565b91506125178361257d565b92508282101561252a5761252961265d565b5b828203905092915050565b60006125408261255d565b9050919050565b60008115159050919050565b6000819050919050565b600073ffffffffffffffffffffffffffffffffffffffff82169050919050565b6000819050919050565b600060ff82169050919050565b600061259f826125a6565b9050919050565b60006125b18261255d565b9050919050565b82818337600083830152505050565b60005b838110156125e55780820151818401526020810190506125ca565b838111156125f4576000848401525b50505050565b6000600282049050600182168061261257607f821691505b602082108114156126265761262561268c565b5b50919050565b612635826126ea565b810181811067ffffffffffffffff82111715612654576126536126bb565b5b80604052505050565b7f4e487b7100000000000000000000000000000000000000000000000000000000600052601160045260246000fd5b7f4e487b7100000000000000000000000000000000000000000000000000000000600052602260045260246000fd5b7f4e487b7100000000000000000000000000000000000000000000000000000000600052604160045260246000fd5b6000601f19601f8301169050919050565b7f4c45524332303a2043616e6e6f74207365742073616d65206164647265737300600082015250565b7f4c45524332303a2054696d65206c6f636b20696e2070726f6772657373000000600082015250565b7f4c45524332303a207472616e7366657220616d6f756e7420657863656564732060008201527f62616c616e636500000000000000000000000000000000000000000000000000602082015250565b7f4c45524332303a207472616e7366657220616d6f756e7420657863656564732060008201527f616c6c6f77616e63650000000000000000000000000000000000000000000000602082015250565b7f4c45524332303a20496e76616c6964206b657900000000000000000000000000600082015250565b7f4c45524332303a205475726e4f6666206e6f742070726f706f73656400000000600082015250565b7f4c45524332303a207472616e736665722066726f6d20746865207a65726f206160008201527f6464726573730000000000000000000000000000000000000000000000000000602082015250565b7f4c45524332303a204d7573742062652063616e64697461746500000000000000600082015250565b7f4c45524332303a205475726e4f666620616c72656164792070726f706f736564600082015250565b7f4c45524332303a204d757374206265207265636f766572792061646d696e0000600082015250565b7f4c45524332303a204c6f73736c65737320616c7265616479206f6e0000000000600082015250565b7f4c45524332303a204c6f73736c65737320616c7265616479206f666600000000600082015250565b7f4c45524332303a204f6e6c79206c6f73736c65737320636f6e74726163740000600082015250565b7f4c45524332303a2064656372656173656420616c6c6f77616e63652062656c6f60008201527f77207a65726f0000000000000000000000000000000000000000000000000000602082015250565b6129da81612535565b81146129e557600080fd5b50565b6129f181612553565b81146129fc57600080fd5b50565b612a088161257d565b8114612a1357600080fd5b5056fea2646970667358221220ef65e1a97aeaaeda1f281ea6be51ab5ca1e0bc65e5769f9677dad69d8507ae6164736f6c63430008040033",
      "opcodes": "PUSH1 0x80 PUSH1 0x40 MSTORE PUSH1 0x1 PUSH1 0xB PUSH1 0x0 PUSH2 0x100 EXP DUP2 SLOAD DUP2 PUSH1 0xFF MUL NOT AND SWAP1 DUP4 ISZERO ISZERO MUL OR SWAP1 SSTORE POP CALLVALUE DUP1 ISZERO PUSH3 0x2C JUMPI PUSH1 0x0 DUP1 REVERT JUMPDEST POP PUSH1 0x40 MLOAD PUSH3 0x32C6 CODESIZE SUB DUP1 PUSH3 0x32C6 DUP4 CODECOPY DUP2 DUP2 ADD PUSH1 0x40 MSTORE DUP2 ADD SWAP1 PUSH3 0x52 SWAP2 SWAP1 PUSH3 0x46C JUMP JUMPDEST PUSH3 0x73 PUSH3 0x66 PUSH3 0x1CE PUSH1 0x20 SHL PUSH1 0x20 SHR JUMP JUMPDEST DUP9 PUSH3 0x1D6 PUSH1 0x20 SHL PUSH1 0x20 SHR JUMP JUMPDEST DUP6 PUSH1 0x3 SWAP1 DUP1 MLOAD SWAP1 PUSH1 0x20 ADD SWAP1 PUSH3 0x8B SWAP3 SWAP2 SWAP1 PUSH3 0x31C JUMP JUMPDEST POP DUP5 PUSH1 0x4 SWAP1 DUP1 MLOAD SWAP1 PUSH1 0x20 ADD SWAP1 PUSH3 0xA4 SWAP3 SWAP2 SWAP1 PUSH3 0x31C JUMP JUMPDEST POP DUP4 PUSH1 0x8 PUSH1 0x0 PUSH2 0x100 EXP DUP2 SLOAD DUP2 PUSH20 0xFFFFFFFFFFFFFFFFFFFFFFFFFFFFFFFFFFFFFFFF MUL NOT AND SWAP1 DUP4 PUSH20 0xFFFFFFFFFFFFFFFFFFFFFFFFFFFFFFFFFFFFFFFF AND MUL OR SWAP1 SSTORE POP DUP3 PUSH1 0x5 PUSH1 0x0 PUSH2 0x100 EXP DUP2 SLOAD DUP2 PUSH20 0xFFFFFFFFFFFFFFFFFFFFFFFFFFFFFFFFFFFFFFFF MUL NOT AND SWAP1 DUP4 PUSH20 0xFFFFFFFFFFFFFFFFFFFFFFFFFFFFFFFFFFFFFFFF AND MUL OR SWAP1 SSTORE POP PUSH1 0x0 PUSH1 0x6 PUSH1 0x0 PUSH2 0x100 EXP DUP2 SLOAD DUP2 PUSH20 0xFFFFFFFFFFFFFFFFFFFFFFFFFFFFFFFFFFFFFFFF MUL NOT AND SWAP1 DUP4 PUSH20 0xFFFFFFFFFFFFFFFFFFFFFFFFFFFFFFFFFFFFFFFF AND MUL OR SWAP1 SSTORE POP PUSH1 0x0 PUSH1 0x7 DUP2 SWAP1 SSTORE POP DUP2 PUSH1 0x9 DUP2 SWAP1 SSTORE POP PUSH1 0x0 PUSH1 0xA DUP2 SWAP1 SSTORE POP DUP1 PUSH1 0xB PUSH1 0x1 PUSH2 0x100 EXP DUP2 SLOAD DUP2 PUSH20 0xFFFFFFFFFFFFFFFFFFFFFFFFFFFFFFFFFFFFFFFF MUL NOT AND SWAP1 DUP4 PUSH20 0xFFFFFFFFFFFFFFFFFFFFFFFFFFFFFFFFFFFFFFFF AND MUL OR SWAP1 SSTORE POP POP POP POP POP POP POP POP PUSH3 0x86A JUMP JUMPDEST PUSH1 0x0 CALLER SWAP1 POP SWAP1 JUMP JUMPDEST PUSH1 0x0 PUSH20 0xFFFFFFFFFFFFFFFFFFFFFFFFFFFFFFFFFFFFFFFF AND DUP3 PUSH20 0xFFFFFFFFFFFFFFFFFFFFFFFFFFFFFFFFFFFFFFFF AND EQ ISZERO PUSH3 0x249 JUMPI PUSH1 0x40 MLOAD PUSH32 0x8C379A000000000000000000000000000000000000000000000000000000000 DUP2 MSTORE PUSH1 0x4 ADD PUSH3 0x240 SWAP1 PUSH3 0x583 JUMP JUMPDEST PUSH1 0x40 MLOAD DUP1 SWAP2 SUB SWAP1 REVERT JUMPDEST DUP1 PUSH1 0x2 PUSH1 0x0 DUP3 DUP3 SLOAD PUSH3 0x25D SWAP2 SWAP1 PUSH3 0x632 JUMP JUMPDEST SWAP3 POP POP DUP2 SWAP1 SSTORE POP DUP1 PUSH1 0x0 DUP1 DUP5 PUSH20 0xFFFFFFFFFFFFFFFFFFFFFFFFFFFFFFFFFFFFFFFF AND PUSH20 0xFFFFFFFFFFFFFFFFFFFFFFFFFFFFFFFFFFFFFFFF AND DUP2 MSTORE PUSH1 0x20 ADD SWAP1 DUP2 MSTORE PUSH1 0x20 ADD PUSH1 0x0 KECCAK256 PUSH1 0x0 DUP3 DUP3 SLOAD ADD SWAP3 POP POP DUP2 SWAP1 SSTORE POP DUP2 PUSH20 0xFFFFFFFFFFFFFFFFFFFFFFFFFFFFFFFFFFFFFFFF AND PUSH1 0x0 PUSH20 0xFFFFFFFFFFFFFFFFFFFFFFFFFFFFFFFFFFFFFFFF AND PUSH32 0xDDF252AD1BE2C89B69C2B068FC378DAA952BA7F163C4A11628F55A4DF523B3EF DUP4 PUSH1 0x40 MLOAD PUSH3 0x310 SWAP2 SWAP1 PUSH3 0x5A5 JUMP JUMPDEST PUSH1 0x40 MLOAD DUP1 SWAP2 SUB SWAP1 LOG3 POP POP JUMP JUMPDEST DUP3 DUP1 SLOAD PUSH3 0x32A SWAP1 PUSH3 0x703 JUMP JUMPDEST SWAP1 PUSH1 0x0 MSTORE PUSH1 0x20 PUSH1 0x0 KECCAK256 SWAP1 PUSH1 0x1F ADD PUSH1 0x20 SWAP1 DIV DUP2 ADD SWAP3 DUP3 PUSH3 0x34E JUMPI PUSH1 0x0 DUP6 SSTORE PUSH3 0x39A JUMP JUMPDEST DUP3 PUSH1 0x1F LT PUSH3 0x369 JUMPI DUP1 MLOAD PUSH1 0xFF NOT AND DUP4 DUP1 ADD OR DUP6 SSTORE PUSH3 0x39A JUMP JUMPDEST DUP3 DUP1 ADD PUSH1 0x1 ADD DUP6 SSTORE DUP3 ISZERO PUSH3 0x39A JUMPI SWAP2 DUP3 ADD JUMPDEST DUP3 DUP2 GT ISZERO PUSH3 0x399 JUMPI DUP3 MLOAD DUP3 SSTORE SWAP2 PUSH1 0x20 ADD SWAP2 SWAP1 PUSH1 0x1 ADD SWAP1 PUSH3 0x37C JUMP JUMPDEST JUMPDEST POP SWAP1 POP PUSH3 0x3A9 SWAP2 SWAP1 PUSH3 0x3AD JUMP JUMPDEST POP SWAP1 JUMP JUMPDEST JUMPDEST DUP1 DUP3 GT ISZERO PUSH3 0x3C8 JUMPI PUSH1 0x0 DUP2 PUSH1 0x0 SWAP1 SSTORE POP PUSH1 0x1 ADD PUSH3 0x3AE JUMP JUMPDEST POP SWAP1 JUMP JUMPDEST PUSH1 0x0 PUSH3 0x3E3 PUSH3 0x3DD DUP5 PUSH3 0x5EB JUMP JUMPDEST PUSH3 0x5C2 JUMP JUMPDEST SWAP1 POP DUP3 DUP2 MSTORE PUSH1 0x20 DUP2 ADD DUP5 DUP5 DUP5 ADD GT ISZERO PUSH3 0x3FC JUMPI PUSH1 0x0 DUP1 REVERT JUMPDEST PUSH3 0x409 DUP5 DUP3 DUP6 PUSH3 0x6CD JUMP JUMPDEST POP SWAP4 SWAP3 POP POP POP JUMP JUMPDEST PUSH1 0x0 DUP2 MLOAD SWAP1 POP PUSH3 0x422 DUP2 PUSH3 0x836 JUMP JUMPDEST SWAP3 SWAP2 POP POP JUMP JUMPDEST PUSH1 0x0 DUP3 PUSH1 0x1F DUP4 ADD SLT PUSH3 0x43A JUMPI PUSH1 0x0 DUP1 REVERT JUMPDEST DUP2 MLOAD PUSH3 0x44C DUP5 DUP3 PUSH1 0x20 DUP7 ADD PUSH3 0x3CC JUMP JUMPDEST SWAP2 POP POP SWAP3 SWAP2 POP POP JUMP JUMPDEST PUSH1 0x0 DUP2 MLOAD SWAP1 POP PUSH3 0x466 DUP2 PUSH3 0x850 JUMP JUMPDEST SWAP3 SWAP2 POP POP JUMP JUMPDEST PUSH1 0x0 DUP1 PUSH1 0x0 DUP1 PUSH1 0x0 DUP1 PUSH1 0x0 PUSH1 0xE0 DUP9 DUP11 SUB SLT ISZERO PUSH3 0x488 JUMPI PUSH1 0x0 DUP1 REVERT JUMPDEST PUSH1 0x0 PUSH3 0x498 DUP11 DUP3 DUP12 ADD PUSH3 0x455 JUMP JUMPDEST SWAP8 POP POP PUSH1 0x20 DUP9 ADD MLOAD PUSH8 0xFFFFFFFFFFFFFFFF DUP2 GT ISZERO PUSH3 0x4B6 JUMPI PUSH1 0x0 DUP1 REVERT JUMPDEST PUSH3 0x4C4 DUP11 DUP3 DUP12 ADD PUSH3 0x428 JUMP JUMPDEST SWAP7 POP POP PUSH1 0x40 DUP9 ADD MLOAD PUSH8 0xFFFFFFFFFFFFFFFF DUP2 GT ISZERO PUSH3 0x4E2 JUMPI PUSH1 0x0 DUP1 REVERT JUMPDEST PUSH3 0x4F0 DUP11 DUP3 DUP12 ADD PUSH3 0x428 JUMP JUMPDEST SWAP6 POP POP PUSH1 0x60 PUSH3 0x503 DUP11 DUP3 DUP12 ADD PUSH3 0x411 JUMP JUMPDEST SWAP5 POP POP PUSH1 0x80 PUSH3 0x516 DUP11 DUP3 DUP12 ADD PUSH3 0x411 JUMP JUMPDEST SWAP4 POP POP PUSH1 0xA0 PUSH3 0x529 DUP11 DUP3 DUP12 ADD PUSH3 0x455 JUMP JUMPDEST SWAP3 POP POP PUSH1 0xC0 PUSH3 0x53C DUP11 DUP3 DUP12 ADD PUSH3 0x411 JUMP JUMPDEST SWAP2 POP POP SWAP3 SWAP6 SWAP9 SWAP2 SWAP5 SWAP8 POP SWAP3 SWAP6 POP JUMP JUMPDEST PUSH1 0x0 PUSH3 0x55A PUSH1 0x20 DUP4 PUSH3 0x621 JUMP JUMPDEST SWAP2 POP PUSH3 0x567 DUP3 PUSH3 0x80D JUMP JUMPDEST PUSH1 0x20 DUP3 ADD SWAP1 POP SWAP2 SWAP1 POP JUMP JUMPDEST PUSH3 0x57D DUP2 PUSH3 0x6C3 JUMP JUMPDEST DUP3 MSTORE POP POP JUMP JUMPDEST PUSH1 0x0 PUSH1 0x20 DUP3 ADD SWAP1 POP DUP2 DUP2 SUB PUSH1 0x0 DUP4 ADD MSTORE PUSH3 0x59E DUP2 PUSH3 0x54B JUMP JUMPDEST SWAP1 POP SWAP2 SWAP1 POP JUMP JUMPDEST PUSH1 0x0 PUSH1 0x20 DUP3 ADD SWAP1 POP PUSH3 0x5BC PUSH1 0x0 DUP4 ADD DUP5 PUSH3 0x572 JUMP JUMPDEST SWAP3 SWAP2 POP POP JUMP JUMPDEST PUSH1 0x0 PUSH3 0x5CE PUSH3 0x5E1 JUMP JUMPDEST SWAP1 POP PUSH3 0x5DC DUP3 DUP3 PUSH3 0x739 JUMP JUMPDEST SWAP2 SWAP1 POP JUMP JUMPDEST PUSH1 0x0 PUSH1 0x40 MLOAD SWAP1 POP SWAP1 JUMP JUMPDEST PUSH1 0x0 PUSH8 0xFFFFFFFFFFFFFFFF DUP3 GT ISZERO PUSH3 0x609 JUMPI PUSH3 0x608 PUSH3 0x7CD JUMP JUMPDEST JUMPDEST PUSH3 0x614 DUP3 PUSH3 0x7FC JUMP JUMPDEST SWAP1 POP PUSH1 0x20 DUP2 ADD SWAP1 POP SWAP2 SWAP1 POP JUMP JUMPDEST PUSH1 0x0 DUP3 DUP3 MSTORE PUSH1 0x20 DUP3 ADD SWAP1 POP SWAP3 SWAP2 POP POP JUMP JUMPDEST PUSH1 0x0 PUSH3 0x63F DUP3 PUSH3 0x6C3 JUMP JUMPDEST SWAP2 POP PUSH3 0x64C DUP4 PUSH3 0x6C3 JUMP JUMPDEST SWAP3 POP DUP3 PUSH32 0xFFFFFFFFFFFFFFFFFFFFFFFFFFFFFFFFFFFFFFFFFFFFFFFFFFFFFFFFFFFFFFFF SUB DUP3 GT ISZERO PUSH3 0x684 JUMPI PUSH3 0x683 PUSH3 0x76F JUMP JUMPDEST JUMPDEST DUP3 DUP3 ADD SWAP1 POP SWAP3 SWAP2 POP POP JUMP JUMPDEST PUSH1 0x0 PUSH3 0x69C DUP3 PUSH3 0x6A3 JUMP JUMPDEST SWAP1 POP SWAP2 SWAP1 POP JUMP JUMPDEST PUSH1 0x0 PUSH20 0xFFFFFFFFFFFFFFFFFFFFFFFFFFFFFFFFFFFFFFFF DUP3 AND SWAP1 POP SWAP2 SWAP1 POP JUMP JUMPDEST PUSH1 0x0 DUP2 SWAP1 POP SWAP2 SWAP1 POP JUMP JUMPDEST PUSH1 0x0 JUMPDEST DUP4 DUP2 LT ISZERO PUSH3 0x6ED JUMPI DUP1 DUP3 ADD MLOAD DUP2 DUP5 ADD MSTORE PUSH1 0x20 DUP2 ADD SWAP1 POP PUSH3 0x6D0 JUMP JUMPDEST DUP4 DUP2 GT ISZERO PUSH3 0x6FD JUMPI PUSH1 0x0 DUP5 DUP5 ADD MSTORE JUMPDEST POP POP POP POP JUMP JUMPDEST PUSH1 0x0 PUSH1 0x2 DUP3 DIV SWAP1 POP PUSH1 0x1 DUP3 AND DUP1 PUSH3 0x71C JUMPI PUSH1 0x7F DUP3 AND SWAP2 POP JUMPDEST PUSH1 0x20 DUP3 LT DUP2 EQ ISZERO PUSH3 0x733 JUMPI PUSH3 0x732 PUSH3 0x79E JUMP JUMPDEST JUMPDEST POP SWAP2 SWAP1 POP JUMP JUMPDEST PUSH3 0x744 DUP3 PUSH3 0x7FC JUMP JUMPDEST DUP2 ADD DUP2 DUP2 LT PUSH8 0xFFFFFFFFFFFFFFFF DUP3 GT OR ISZERO PUSH3 0x766 JUMPI PUSH3 0x765 PUSH3 0x7CD JUMP JUMPDEST JUMPDEST DUP1 PUSH1 0x40 MSTORE POP POP POP JUMP JUMPDEST PUSH32 0x4E487B7100000000000000000000000000000000000000000000000000000000 PUSH1 0x0 MSTORE PUSH1 0x11 PUSH1 0x4 MSTORE PUSH1 0x24 PUSH1 0x0 REVERT JUMPDEST PUSH32 0x4E487B7100000000000000000000000000000000000000000000000000000000 PUSH1 0x0 MSTORE PUSH1 0x22 PUSH1 0x4 MSTORE PUSH1 0x24 PUSH1 0x0 REVERT JUMPDEST PUSH32 0x4E487B7100000000000000000000000000000000000000000000000000000000 PUSH1 0x0 MSTORE PUSH1 0x41 PUSH1 0x4 MSTORE PUSH1 0x24 PUSH1 0x0 REVERT JUMPDEST PUSH1 0x0 PUSH1 0x1F NOT PUSH1 0x1F DUP4 ADD AND SWAP1 POP SWAP2 SWAP1 POP JUMP JUMPDEST PUSH32 0x4C45524332303A206D696E7420746F20746865207A65726F2061646472657373 PUSH1 0x0 DUP3 ADD MSTORE POP JUMP JUMPDEST PUSH3 0x841 DUP2 PUSH3 0x68F JUMP JUMPDEST DUP2 EQ PUSH3 0x84D JUMPI PUSH1 0x0 DUP1 REVERT JUMPDEST POP JUMP JUMPDEST PUSH3 0x85B DUP2 PUSH3 0x6C3 JUMP JUMPDEST DUP2 EQ PUSH3 0x867 JUMPI PUSH1 0x0 DUP1 REVERT JUMPDEST POP JUMP JUMPDEST PUSH2 0x2A4C DUP1 PUSH3 0x87A PUSH1 0x0 CODECOPY PUSH1 0x0 RETURN INVALID PUSH1 0x80 PUSH1 0x40 MSTORE CALLVALUE DUP1 ISZERO PUSH2 0x10 JUMPI PUSH1 0x0 DUP1 REVERT JUMPDEST POP PUSH1 0x4 CALLDATASIZE LT PUSH2 0x173 JUMPI PUSH1 0x0 CALLDATALOAD PUSH1 0xE0 SHR DUP1 PUSH4 0x6E9960C3 GT PUSH2 0xDE JUMPI DUP1 PUSH4 0xA9059CBB GT PUSH2 0x97 JUMPI DUP1 PUSH4 0xCCFA214F GT PUSH2 0x71 JUMPI DUP1 PUSH4 0xCCFA214F EQ PUSH2 0x42A JUMPI DUP1 PUSH4 0xD6E242B8 EQ PUSH2 0x448 JUMPI DUP1 PUSH4 0xDD62ED3E EQ PUSH2 0x452 JUMPI DUP1 PUSH4 0xF851A440 EQ PUSH2 0x482 JUMPI PUSH2 0x173 JUMP JUMPDEST DUP1 PUSH4 0xA9059CBB EQ PUSH2 0x3D4 JUMPI DUP1 PUSH4 0xB38FE957 EQ PUSH2 0x404 JUMPI DUP1 PUSH4 0xB5C22877 EQ PUSH2 0x40E JUMPI PUSH2 0x173 JUMP JUMPDEST DUP1 PUSH4 0x6E9960C3 EQ PUSH2 0x300 JUMPI DUP1 PUSH4 0x70A08231 EQ PUSH2 0x31E JUMPI DUP1 PUSH4 0x93310FFE EQ PUSH2 0x34E JUMPI DUP1 PUSH4 0x936AF911 EQ PUSH2 0x36A JUMPI DUP1 PUSH4 0x95D89B41 EQ PUSH2 0x386 JUMPI DUP1 PUSH4 0xA457C2D7 EQ PUSH2 0x3A4 JUMPI PUSH2 0x173 JUMP JUMPDEST DUP1 PUSH4 0x313CE567 GT PUSH2 0x130 JUMPI DUP1 PUSH4 0x313CE567 EQ PUSH2 0x24E JUMPI DUP1 PUSH4 0x34F6EBF5 EQ PUSH2 0x26C JUMPI DUP1 PUSH4 0x39509351 EQ PUSH2 0x28A JUMPI DUP1 PUSH4 0x5B8A194A EQ PUSH2 0x2BA JUMPI DUP1 PUSH4 0x5F6529A3 EQ PUSH2 0x2C4 JUMPI DUP1 PUSH4 0x61086B00 EQ PUSH2 0x2E2 JUMPI PUSH2 0x173 JUMP JUMPDEST DUP1 PUSH4 0x6FDDE03 EQ PUSH2 0x178 JUMPI DUP1 PUSH4 0x95EA7B3 EQ PUSH2 0x196 JUMPI DUP1 PUSH4 0x18160DDD EQ PUSH2 0x1C6 JUMPI DUP1 PUSH4 0x23B872DD EQ PUSH2 0x1E4 JUMPI DUP1 PUSH4 0x2BAA3C9E EQ PUSH2 0x214 JUMPI DUP1 PUSH4 0x2ECAF675 EQ PUSH2 0x230 JUMPI JUMPDEST PUSH1 0x0 DUP1 REVERT JUMPDEST PUSH2 0x180 PUSH2 0x4A0 JUMP JUMPDEST PUSH1 0x40 MLOAD PUSH2 0x18D SWAP2 SWAP1 PUSH2 0x2221 JUMP JUMPDEST PUSH1 0x40 MLOAD DUP1 SWAP2 SUB SWAP1 RETURN JUMPDEST PUSH2 0x1B0 PUSH1 0x4 DUP1 CALLDATASIZE SUB DUP2 ADD SWAP1 PUSH2 0x1AB SWAP2 SWAP1 PUSH2 0x1E24 JUMP JUMPDEST PUSH2 0x532 JUMP JUMPDEST PUSH1 0x40 MLOAD PUSH2 0x1BD SWAP2 SWAP1 PUSH2 0x21EB JUMP JUMPDEST PUSH1 0x40 MLOAD DUP1 SWAP2 SUB SWAP1 RETURN JUMPDEST PUSH2 0x1CE PUSH2 0x602 JUMP JUMPDEST PUSH1 0x40 MLOAD PUSH2 0x1DB SWAP2 SWAP1 PUSH2 0x2403 JUMP JUMPDEST PUSH1 0x40 MLOAD DUP1 SWAP2 SUB SWAP1 RETURN JUMPDEST PUSH2 0x1FE PUSH1 0x4 DUP1 CALLDATASIZE SUB DUP2 ADD SWAP1 PUSH2 0x1F9 SWAP2 SWAP1 PUSH2 0x1D99 JUMP JUMPDEST PUSH2 0x60C JUMP JUMPDEST PUSH1 0x40 MLOAD PUSH2 0x20B SWAP2 SWAP1 PUSH2 0x21EB JUMP JUMPDEST PUSH1 0x40 MLOAD DUP1 SWAP2 SUB SWAP1 RETURN JUMPDEST PUSH2 0x22E PUSH1 0x4 DUP1 CALLDATASIZE SUB DUP2 ADD SWAP1 PUSH2 0x229 SWAP2 SWAP1 PUSH2 0x1D34 JUMP JUMPDEST PUSH2 0x7C3 JUMP JUMPDEST STOP JUMPDEST PUSH2 0x238 PUSH2 0x972 JUMP JUMPDEST PUSH1 0x40 MLOAD PUSH2 0x245 SWAP2 SWAP1 PUSH2 0x2403 JUMP JUMPDEST PUSH1 0x40 MLOAD DUP1 SWAP2 SUB SWAP1 RETURN JUMPDEST PUSH2 0x256 PUSH2 0x978 JUMP JUMPDEST PUSH1 0x40 MLOAD PUSH2 0x263 SWAP2 SWAP1 PUSH2 0x241E JUMP JUMPDEST PUSH1 0x40 MLOAD DUP1 SWAP2 SUB SWAP1 RETURN JUMPDEST PUSH2 0x274 PUSH2 0x981 JUMP JUMPDEST PUSH1 0x40 MLOAD PUSH2 0x281 SWAP2 SWAP1 PUSH2 0x2206 JUMP JUMPDEST PUSH1 0x40 MLOAD DUP1 SWAP2 SUB SWAP1 RETURN JUMPDEST PUSH2 0x2A4 PUSH1 0x4 DUP1 CALLDATASIZE SUB DUP2 ADD SWAP1 PUSH2 0x29F SWAP2 SWAP1 PUSH2 0x1E24 JUMP JUMPDEST PUSH2 0x9A7 JUMP JUMPDEST PUSH1 0x40 MLOAD PUSH2 0x2B1 SWAP2 SWAP1 PUSH2 0x21EB JUMP JUMPDEST PUSH1 0x40 MLOAD DUP1 SWAP2 SUB SWAP1 RETURN JUMPDEST PUSH2 0x2C2 PUSH2 0xB05 JUMP JUMPDEST STOP JUMPDEST PUSH2 0x2CC PUSH2 0xC3D JUMP JUMPDEST PUSH1 0x40 MLOAD PUSH2 0x2D9 SWAP2 SWAP1 PUSH2 0x2154 JUMP JUMPDEST PUSH1 0x40 MLOAD DUP1 SWAP2 SUB SWAP1 RETURN JUMPDEST PUSH2 0x2EA PUSH2 0xC63 JUMP JUMPDEST PUSH1 0x40 MLOAD PUSH2 0x2F7 SWAP2 SWAP1 PUSH2 0x2403 JUMP JUMPDEST PUSH1 0x40 MLOAD DUP1 SWAP2 SUB SWAP1 RETURN JUMPDEST PUSH2 0x308 PUSH2 0xC69 JUMP JUMPDEST PUSH1 0x40 MLOAD PUSH2 0x315 SWAP2 SWAP1 PUSH2 0x2154 JUMP JUMPDEST PUSH1 0x40 MLOAD DUP1 SWAP2 SUB SWAP1 RETURN JUMPDEST PUSH2 0x338 PUSH1 0x4 DUP1 CALLDATASIZE SUB DUP2 ADD SWAP1 PUSH2 0x333 SWAP2 SWAP1 PUSH2 0x1D34 JUMP JUMPDEST PUSH2 0xC93 JUMP JUMPDEST PUSH1 0x40 MLOAD PUSH2 0x345 SWAP2 SWAP1 PUSH2 0x2403 JUMP JUMPDEST PUSH1 0x40 MLOAD DUP1 SWAP2 SUB SWAP1 RETURN JUMPDEST PUSH2 0x368 PUSH1 0x4 DUP1 CALLDATASIZE SUB DUP2 ADD SWAP1 PUSH2 0x363 SWAP2 SWAP1 PUSH2 0x1DE8 JUMP JUMPDEST PUSH2 0xCDB JUMP JUMPDEST STOP JUMPDEST PUSH2 0x384 PUSH1 0x4 DUP1 CALLDATASIZE SUB DUP2 ADD SWAP1 PUSH2 0x37F SWAP2 SWAP1 PUSH2 0x1E60 JUMP JUMPDEST PUSH2 0xE01 JUMP JUMPDEST STOP JUMPDEST PUSH2 0x38E PUSH2 0x10A7 JUMP JUMPDEST PUSH1 0x40 MLOAD PUSH2 0x39B SWAP2 SWAP1 PUSH2 0x2221 JUMP JUMPDEST PUSH1 0x40 MLOAD DUP1 SWAP2 SUB SWAP1 RETURN JUMPDEST PUSH2 0x3BE PUSH1 0x4 DUP1 CALLDATASIZE SUB DUP2 ADD SWAP1 PUSH2 0x3B9 SWAP2 SWAP1 PUSH2 0x1E24 JUMP JUMPDEST PUSH2 0x1139 JUMP JUMPDEST PUSH1 0x40 MLOAD PUSH2 0x3CB SWAP2 SWAP1 PUSH2 0x21EB JUMP JUMPDEST PUSH1 0x40 MLOAD DUP1 SWAP2 SUB SWAP1 RETURN JUMPDEST PUSH2 0x3EE PUSH1 0x4 DUP1 CALLDATASIZE SUB DUP2 ADD SWAP1 PUSH2 0x3E9 SWAP2 SWAP1 PUSH2 0x1E24 JUMP JUMPDEST PUSH2 0x12E0 JUMP JUMPDEST PUSH1 0x40 MLOAD PUSH2 0x3FB SWAP2 SWAP1 PUSH2 0x21EB JUMP JUMPDEST PUSH1 0x40 MLOAD DUP1 SWAP2 SUB SWAP1 RETURN JUMPDEST PUSH2 0x40C PUSH2 0x13B0 JUMP JUMPDEST STOP JUMPDEST PUSH2 0x428 PUSH1 0x4 DUP1 CALLDATASIZE SUB DUP2 ADD SWAP1 PUSH2 0x423 SWAP2 SWAP1 PUSH2 0x1EA5 JUMP JUMPDEST PUSH2 0x1523 JUMP JUMPDEST STOP JUMPDEST PUSH2 0x432 PUSH2 0x1712 JUMP JUMPDEST PUSH1 0x40 MLOAD PUSH2 0x43F SWAP2 SWAP1 PUSH2 0x21EB JUMP JUMPDEST PUSH1 0x40 MLOAD DUP1 SWAP2 SUB SWAP1 RETURN JUMPDEST PUSH2 0x450 PUSH2 0x1725 JUMP JUMPDEST STOP JUMPDEST PUSH2 0x46C PUSH1 0x4 DUP1 CALLDATASIZE SUB DUP2 ADD SWAP1 PUSH2 0x467 SWAP2 SWAP1 PUSH2 0x1D5D JUMP JUMPDEST PUSH2 0x189F JUMP JUMPDEST PUSH1 0x40 MLOAD PUSH2 0x479 SWAP2 SWAP1 PUSH2 0x2403 JUMP JUMPDEST PUSH1 0x40 MLOAD DUP1 SWAP2 SUB SWAP1 RETURN JUMPDEST PUSH2 0x48A PUSH2 0x1926 JUMP JUMPDEST PUSH1 0x40 MLOAD PUSH2 0x497 SWAP2 SWAP1 PUSH2 0x2154 JUMP JUMPDEST PUSH1 0x40 MLOAD DUP1 SWAP2 SUB SWAP1 RETURN JUMPDEST PUSH1 0x60 PUSH1 0x3 DUP1 SLOAD PUSH2 0x4AF SWAP1 PUSH2 0x25FA JUMP JUMPDEST DUP1 PUSH1 0x1F ADD PUSH1 0x20 DUP1 SWAP2 DIV MUL PUSH1 0x20 ADD PUSH1 0x40 MLOAD SWAP1 DUP2 ADD PUSH1 0x40 MSTORE DUP1 SWAP3 SWAP2 SWAP1 DUP2 DUP2 MSTORE PUSH1 0x20 ADD DUP3 DUP1 SLOAD PUSH2 0x4DB SWAP1 PUSH2 0x25FA JUMP JUMPDEST DUP1 ISZERO PUSH2 0x528 JUMPI DUP1 PUSH1 0x1F LT PUSH2 0x4FD JUMPI PUSH2 0x100 DUP1 DUP4 SLOAD DIV MUL DUP4 MSTORE SWAP2 PUSH1 0x20 ADD SWAP2 PUSH2 0x528 JUMP JUMPDEST DUP3 ADD SWAP2 SWAP1 PUSH1 0x0 MSTORE PUSH1 0x20 PUSH1 0x0 KECCAK256 SWAP1 JUMPDEST DUP2 SLOAD DUP2 MSTORE SWAP1 PUSH1 0x1 ADD SWAP1 PUSH1 0x20 ADD DUP1 DUP4 GT PUSH2 0x50B JUMPI DUP3 SWAP1 SUB PUSH1 0x1F AND DUP3 ADD SWAP2 JUMPDEST POP POP POP POP POP SWAP1 POP SWAP1 JUMP JUMPDEST PUSH1 0x0 DUP3 DUP3 PUSH1 0xB PUSH1 0x0 SWAP1 SLOAD SWAP1 PUSH2 0x100 EXP SWAP1 DIV PUSH1 0xFF AND ISZERO PUSH2 0x5E4 JUMPI PUSH1 0xB PUSH1 0x1 SWAP1 SLOAD SWAP1 PUSH2 0x100 EXP SWAP1 DIV PUSH20 0xFFFFFFFFFFFFFFFFFFFFFFFFFFFFFFFFFFFFFFFF AND PUSH20 0xFFFFFFFFFFFFFFFFFFFFFFFFFFFFFFFFFFFFFFFF AND PUSH4 0x47ABF3BE PUSH2 0x591 PUSH2 0x194C JUMP JUMPDEST DUP5 DUP5 PUSH1 0x40 MLOAD DUP5 PUSH4 0xFFFFFFFF AND PUSH1 0xE0 SHL DUP2 MSTORE PUSH1 0x4 ADD PUSH2 0x5B1 SWAP4 SWAP3 SWAP2 SWAP1 PUSH2 0x21B4 JUMP JUMPDEST PUSH1 0x0 PUSH1 0x40 MLOAD DUP1 DUP4 SUB DUP2 PUSH1 0x0 DUP8 DUP1 EXTCODESIZE ISZERO DUP1 ISZERO PUSH2 0x5CB JUMPI PUSH1 0x0 DUP1 REVERT JUMPDEST POP GAS CALL ISZERO DUP1 ISZERO PUSH2 0x5DF JUMPI RETURNDATASIZE PUSH1 0x0 DUP1 RETURNDATACOPY RETURNDATASIZE PUSH1 0x0 REVERT JUMPDEST POP POP POP POP JUMPDEST PUSH2 0x5F6 PUSH2 0x5EF PUSH2 0x194C JUMP JUMPDEST DUP7 DUP7 PUSH2 0x1954 JUMP JUMPDEST PUSH1 0x1 SWAP3 POP POP POP SWAP3 SWAP2 POP POP JUMP JUMPDEST PUSH1 0x0 PUSH1 0x2 SLOAD SWAP1 POP SWAP1 JUMP JUMPDEST PUSH1 0x0 DUP4 DUP4 DUP4 PUSH1 0xB PUSH1 0x0 SWAP1 SLOAD SWAP1 PUSH2 0x100 EXP SWAP1 DIV PUSH1 0xFF AND ISZERO PUSH2 0x6C1 JUMPI PUSH1 0xB PUSH1 0x1 SWAP1 SLOAD SWAP1 PUSH2 0x100 EXP SWAP1 DIV PUSH20 0xFFFFFFFFFFFFFFFFFFFFFFFFFFFFFFFFFFFFFFFF AND PUSH20 0xFFFFFFFFFFFFFFFFFFFFFFFFFFFFFFFFFFFFFFFF AND PUSH4 0x379F5C69 PUSH2 0x66C PUSH2 0x194C JUMP JUMPDEST DUP6 DUP6 DUP6 PUSH1 0x40 MLOAD DUP6 PUSH4 0xFFFFFFFF AND PUSH1 0xE0 SHL DUP2 MSTORE PUSH1 0x4 ADD PUSH2 0x68E SWAP5 SWAP4 SWAP3 SWAP2 SWAP1 PUSH2 0x216F JUMP JUMPDEST PUSH1 0x0 PUSH1 0x40 MLOAD DUP1 DUP4 SUB DUP2 PUSH1 0x0 DUP8 DUP1 EXTCODESIZE ISZERO DUP1 ISZERO PUSH2 0x6A8 JUMPI PUSH1 0x0 DUP1 REVERT JUMPDEST POP GAS CALL ISZERO DUP1 ISZERO PUSH2 0x6BC JUMPI RETURNDATASIZE PUSH1 0x0 DUP1 RETURNDATACOPY RETURNDATASIZE PUSH1 0x0 REVERT JUMPDEST POP POP POP POP JUMPDEST PUSH1 0x0 PUSH1 0x1 PUSH1 0x0 DUP10 PUSH20 0xFFFFFFFFFFFFFFFFFFFFFFFFFFFFFFFFFFFFFFFF AND PUSH20 0xFFFFFFFFFFFFFFFFFFFFFFFFFFFFFFFFFFFFFFFF AND DUP2 MSTORE PUSH1 0x20 ADD SWAP1 DUP2 MSTORE PUSH1 0x20 ADD PUSH1 0x0 KECCAK256 PUSH1 0x0 PUSH2 0x70C PUSH2 0x194C JUMP JUMPDEST PUSH20 0xFFFFFFFFFFFFFFFFFFFFFFFFFFFFFFFFFFFFFFFF AND PUSH20 0xFFFFFFFFFFFFFFFFFFFFFFFFFFFFFFFFFFFFFFFF AND DUP2 MSTORE PUSH1 0x20 ADD SWAP1 DUP2 MSTORE PUSH1 0x20 ADD PUSH1 0x0 KECCAK256 SLOAD SWAP1 POP DUP6 DUP2 LT ISZERO PUSH2 0x78C JUMPI PUSH1 0x40 MLOAD PUSH32 0x8C379A000000000000000000000000000000000000000000000000000000000 DUP2 MSTORE PUSH1 0x4 ADD PUSH2 0x783 SWAP1 PUSH2 0x22A3 JUMP JUMPDEST PUSH1 0x40 MLOAD DUP1 SWAP2 SUB SWAP1 REVERT JUMPDEST PUSH2 0x797 DUP9 DUP9 DUP9 PUSH2 0x1A3F JUMP JUMPDEST PUSH2 0x7B4 DUP9 PUSH2 0x7A3 PUSH2 0x194C JUMP JUMPDEST DUP9 DUP5 PUSH2 0x7AF SWAP2 SWAP1 PUSH2 0x2501 JUMP JUMPDEST PUSH2 0x1954 JUMP JUMPDEST PUSH1 0x1 SWAP5 POP POP POP POP POP SWAP4 SWAP3 POP POP POP JUMP JUMPDEST PUSH1 0x5 PUSH1 0x0 SWAP1 SLOAD SWAP1 PUSH2 0x100 EXP SWAP1 DIV PUSH20 0xFFFFFFFFFFFFFFFFFFFFFFFFFFFFFFFFFFFFFFFF AND PUSH20 0xFFFFFFFFFFFFFFFFFFFFFFFFFFFFFFFFFFFFFFFF AND PUSH2 0x804 PUSH2 0x194C JUMP JUMPDEST PUSH20 0xFFFFFFFFFFFFFFFFFFFFFFFFFFFFFFFFFFFFFFFF AND EQ PUSH2 0x85A JUMPI PUSH1 0x40 MLOAD PUSH32 0x8C379A000000000000000000000000000000000000000000000000000000000 DUP2 MSTORE PUSH1 0x4 ADD PUSH2 0x851 SWAP1 PUSH2 0x2363 JUMP JUMPDEST PUSH1 0x40 MLOAD DUP1 SWAP2 SUB SWAP1 REVERT JUMPDEST PUSH1 0x8 PUSH1 0x0 SWAP1 SLOAD SWAP1 PUSH2 0x100 EXP SWAP1 DIV PUSH20 0xFFFFFFFFFFFFFFFFFFFFFFFFFFFFFFFFFFFFFFFF AND PUSH20 0xFFFFFFFFFFFFFFFFFFFFFFFFFFFFFFFFFFFFFFFF AND DUP2 PUSH20 0xFFFFFFFFFFFFFFFFFFFFFFFFFFFFFFFFFFFFFFFF AND EQ ISZERO PUSH2 0x8EB JUMPI PUSH1 0x40 MLOAD PUSH32 0x8C379A000000000000000000000000000000000000000000000000000000000 DUP2 MSTORE PUSH1 0x4 ADD PUSH2 0x8E2 SWAP1 PUSH2 0x2243 JUMP JUMPDEST PUSH1 0x40 MLOAD DUP1 SWAP2 SUB SWAP1 REVERT JUMPDEST DUP1 PUSH20 0xFFFFFFFFFFFFFFFFFFFFFFFFFFFFFFFFFFFFFFFF AND PUSH32 0x71614071B88DEE5E0B2AE578A9DD7B2EBBE9AE832BA419DC0242CD065A290B6C PUSH1 0x40 MLOAD PUSH1 0x40 MLOAD DUP1 SWAP2 SUB SWAP1 LOG2 DUP1 PUSH1 0x8 PUSH1 0x0 PUSH2 0x100 EXP DUP2 SLOAD DUP2 PUSH20 0xFFFFFFFFFFFFFFFFFFFFFFFFFFFFFFFFFFFFFFFF MUL NOT AND SWAP1 DUP4 PUSH20 0xFFFFFFFFFFFFFFFFFFFFFFFFFFFFFFFFFFFFFFFF AND MUL OR SWAP1 SSTORE POP POP JUMP JUMPDEST PUSH1 0x9 SLOAD DUP2 JUMP JUMPDEST PUSH1 0x0 PUSH1 0x12 SWAP1 POP SWAP1 JUMP JUMPDEST PUSH1 0xB PUSH1 0x1 SWAP1 SLOAD SWAP1 PUSH2 0x100 EXP SWAP1 DIV PUSH20 0xFFFFFFFFFFFFFFFFFFFFFFFFFFFFFFFFFFFFFFFF AND DUP2 JUMP JUMPDEST PUSH1 0x0 DUP3 DUP3 PUSH1 0xB PUSH1 0x0 SWAP1 SLOAD SWAP1 PUSH2 0x100 EXP SWAP1 DIV PUSH1 0xFF AND ISZERO PUSH2 0xA59 JUMPI PUSH1 0xB PUSH1 0x1 SWAP1 SLOAD SWAP1 PUSH2 0x100 EXP SWAP1 DIV PUSH20 0xFFFFFFFFFFFFFFFFFFFFFFFFFFFFFFFFFFFFFFFF AND PUSH20 0xFFFFFFFFFFFFFFFFFFFFFFFFFFFFFFFFFFFFFFFF AND PUSH4 0xCF5961BB PUSH2 0xA06 PUSH2 0x194C JUMP JUMPDEST DUP5 DUP5 PUSH1 0x40 MLOAD DUP5 PUSH4 0xFFFFFFFF AND PUSH1 0xE0 SHL DUP2 MSTORE PUSH1 0x4 ADD PUSH2 0xA26 SWAP4 SWAP3 SWAP2 SWAP1 PUSH2 0x21B4 JUMP JUMPDEST PUSH1 0x0 PUSH1 0x40 MLOAD DUP1 DUP4 SUB DUP2 PUSH1 0x0 DUP8 DUP1 EXTCODESIZE ISZERO DUP1 ISZERO PUSH2 0xA40 JUMPI PUSH1 0x0 DUP1 REVERT JUMPDEST POP GAS CALL ISZERO DUP1 ISZERO PUSH2 0xA54 JUMPI RETURNDATASIZE PUSH1 0x0 DUP1 RETURNDATACOPY RETURNDATASIZE PUSH1 0x0 REVERT JUMPDEST POP POP POP POP JUMPDEST PUSH2 0xAF9 PUSH2 0xA64 PUSH2 0x194C JUMP JUMPDEST DUP7 DUP7 PUSH1 0x1 PUSH1 0x0 PUSH2 0xA72 PUSH2 0x194C JUMP JUMPDEST PUSH20 0xFFFFFFFFFFFFFFFFFFFFFFFFFFFFFFFFFFFFFFFF AND PUSH20 0xFFFFFFFFFFFFFFFFFFFFFFFFFFFFFFFFFFFFFFFF AND DUP2 MSTORE PUSH1 0x20 ADD SWAP1 DUP2 MSTORE PUSH1 0x20 ADD PUSH1 0x0 KECCAK256 PUSH1 0x0 DUP11 PUSH20 0xFFFFFFFFFFFFFFFFFFFFFFFFFFFFFFFFFFFFFFFF AND PUSH20 0xFFFFFFFFFFFFFFFFFFFFFFFFFFFFFFFFFFFFFFFF AND DUP2 MSTORE PUSH1 0x20 ADD SWAP1 DUP2 MSTORE PUSH1 0x20 ADD PUSH1 0x0 KECCAK256 SLOAD PUSH2 0xAF4 SWAP2 SWAP1 PUSH2 0x24AB JUMP JUMPDEST PUSH2 0x1954 JUMP JUMPDEST PUSH1 0x1 SWAP3 POP POP POP SWAP3 SWAP2 POP POP JUMP JUMPDEST PUSH1 0x5 PUSH1 0x0 SWAP1 SLOAD SWAP1 PUSH2 0x100 EXP SWAP1 DIV PUSH20 0xFFFFFFFFFFFFFFFFFFFFFFFFFFFFFFFFFFFFFFFF AND PUSH20 0xFFFFFFFFFFFFFFFFFFFFFFFFFFFFFFFFFFFFFFFF AND PUSH2 0xB46 PUSH2 0x194C JUMP JUMPDEST PUSH20 0xFFFFFFFFFFFFFFFFFFFFFFFFFFFFFFFFFFFFFFFF AND EQ PUSH2 0xB9C JUMPI PUSH1 0x40 MLOAD PUSH32 0x8C379A000000000000000000000000000000000000000000000000000000000 DUP2 MSTORE PUSH1 0x4 ADD PUSH2 0xB93 SWAP1 PUSH2 0x2363 JUMP JUMPDEST PUSH1 0x40 MLOAD DUP1 SWAP2 SUB SWAP1 REVERT JUMPDEST PUSH1 0xB PUSH1 0x0 SWAP1 SLOAD SWAP1 PUSH2 0x100 EXP SWAP1 DIV PUSH1 0xFF AND ISZERO PUSH2 0xBEC JUMPI PUSH1 0x40 MLOAD PUSH32 0x8C379A000000000000000000000000000000000000000000000000000000000 DUP2 MSTORE PUSH1 0x4 ADD PUSH2 0xBE3 SWAP1 PUSH2 0x2383 JUMP JUMPDEST PUSH1 0x40 MLOAD DUP1 SWAP2 SUB SWAP1 REVERT JUMPDEST PUSH1 0x0 PUSH1 0xA DUP2 SWAP1 SSTORE POP PUSH1 0x1 PUSH1 0xB PUSH1 0x0 PUSH2 0x100 EXP DUP2 SLOAD DUP2 PUSH1 0xFF MUL NOT AND SWAP1 DUP4 ISZERO ISZERO MUL OR SWAP1 SSTORE POP PUSH32 0x1BA3B66404043DA8297D0B876FA6464F2CB127EDFC6626308046D4503028322B PUSH1 0x40 MLOAD PUSH1 0x40 MLOAD DUP1 SWAP2 SUB SWAP1 LOG1 JUMP JUMPDEST PUSH1 0x5 PUSH1 0x0 SWAP1 SLOAD SWAP1 PUSH2 0x100 EXP SWAP1 DIV PUSH20 0xFFFFFFFFFFFFFFFFFFFFFFFFFFFFFFFFFFFFFFFF AND DUP2 JUMP JUMPDEST PUSH1 0xA SLOAD DUP2 JUMP JUMPDEST PUSH1 0x0 PUSH1 0x8 PUSH1 0x0 SWAP1 SLOAD SWAP1 PUSH2 0x100 EXP SWAP1 DIV PUSH20 0xFFFFFFFFFFFFFFFFFFFFFFFFFFFFFFFFFFFFFFFF AND SWAP1 POP SWAP1 JUMP JUMPDEST PUSH1 0x0 DUP1 PUSH1 0x0 DUP4 PUSH20 0xFFFFFFFFFFFFFFFFFFFFFFFFFFFFFFFFFFFFFFFF AND PUSH20 0xFFFFFFFFFFFFFFFFFFFFFFFFFFFFFFFFFFFFFFFF AND DUP2 MSTORE PUSH1 0x20 ADD SWAP1 DUP2 MSTORE PUSH1 0x20 ADD PUSH1 0x0 KECCAK256 SLOAD SWAP1 POP SWAP2 SWAP1 POP JUMP JUMPDEST PUSH1 0x5 PUSH1 0x0 SWAP1 SLOAD SWAP1 PUSH2 0x100 EXP SWAP1 DIV PUSH20 0xFFFFFFFFFFFFFFFFFFFFFFFFFFFFFFFFFFFFFFFF AND PUSH20 0xFFFFFFFFFFFFFFFFFFFFFFFFFFFFFFFFFFFFFFFF AND PUSH2 0xD1C PUSH2 0x194C JUMP JUMPDEST PUSH20 0xFFFFFFFFFFFFFFFFFFFFFFFFFFFFFFFFFFFFFFFF AND EQ PUSH2 0xD72 JUMPI PUSH1 0x40 MLOAD PUSH32 0x8C379A000000000000000000000000000000000000000000000000000000000 DUP2 MSTORE PUSH1 0x4 ADD PUSH2 0xD69 SWAP1 PUSH2 0x2363 JUMP JUMPDEST PUSH1 0x40 MLOAD DUP1 SWAP2 SUB SWAP1 REVERT JUMPDEST DUP2 PUSH1 0x6 PUSH1 0x0 PUSH2 0x100 EXP DUP2 SLOAD DUP2 PUSH20 0xFFFFFFFFFFFFFFFFFFFFFFFFFFFFFFFFFFFFFFFF MUL NOT AND SWAP1 DUP4 PUSH20 0xFFFFFFFFFFFFFFFFFFFFFFFFFFFFFFFFFFFFFFFF AND MUL OR SWAP1 SSTORE POP DUP1 PUSH1 0x7 DUP2 SWAP1 SSTORE POP DUP2 PUSH20 0xFFFFFFFFFFFFFFFFFFFFFFFFFFFFFFFFFFFFFFFF AND PUSH32 0x6C591DA8DA2F6E69746D7D9AE61C27EE29FBE303798141B4942AE2AEF54274B1 PUSH1 0x40 MLOAD PUSH1 0x40 MLOAD DUP1 SWAP2 SUB SWAP1 LOG2 POP POP JUMP JUMPDEST PUSH1 0xB PUSH1 0x1 SWAP1 SLOAD SWAP1 PUSH2 0x100 EXP SWAP1 DIV PUSH20 0xFFFFFFFFFFFFFFFFFFFFFFFFFFFFFFFFFFFFFFFF AND PUSH20 0xFFFFFFFFFFFFFFFFFFFFFFFFFFFFFFFFFFFFFFFF AND PUSH2 0xE42 PUSH2 0x194C JUMP JUMPDEST PUSH20 0xFFFFFFFFFFFFFFFFFFFFFFFFFFFFFFFFFFFFFFFF AND EQ PUSH2 0xE98 JUMPI PUSH1 0x40 MLOAD PUSH32 0x8C379A000000000000000000000000000000000000000000000000000000000 DUP2 MSTORE PUSH1 0x4 ADD PUSH2 0xE8F SWAP1 PUSH2 0x23C3 JUMP JUMPDEST PUSH1 0x40 MLOAD DUP1 SWAP2 SUB SWAP1 REVERT JUMPDEST PUSH1 0x0 DUP3 DUP3 SWAP1 POP SWAP1 POP PUSH1 0x0 DUP1 JUMPDEST DUP3 DUP2 LT ISZERO PUSH2 0x1029 JUMPI PUSH1 0x0 DUP6 DUP6 DUP4 DUP2 DUP2 LT PUSH2 0xEE7 JUMPI PUSH32 0x4E487B7100000000000000000000000000000000000000000000000000000000 PUSH1 0x0 MSTORE PUSH1 0x32 PUSH1 0x4 MSTORE PUSH1 0x24 PUSH1 0x0 REVERT JUMPDEST SWAP1 POP PUSH1 0x20 MUL ADD PUSH1 0x20 DUP2 ADD SWAP1 PUSH2 0xEFC SWAP2 SWAP1 PUSH2 0x1D34 JUMP JUMPDEST SWAP1 POP PUSH1 0x0 DUP1 PUSH1 0x0 DUP4 PUSH20 0xFFFFFFFFFFFFFFFFFFFFFFFFFFFFFFFFFFFFFFFF AND PUSH20 0xFFFFFFFFFFFFFFFFFFFFFFFFFFFFFFFFFFFFFFFF AND DUP2 MSTORE PUSH1 0x20 ADD SWAP1 DUP2 MSTORE PUSH1 0x20 ADD PUSH1 0x0 KECCAK256 SLOAD SWAP1 POP PUSH1 0x0 DUP1 PUSH1 0x0 DUP5 PUSH20 0xFFFFFFFFFFFFFFFFFFFFFFFFFFFFFFFFFFFFFFFF AND PUSH20 0xFFFFFFFFFFFFFFFFFFFFFFFFFFFFFFFFFFFFFFFF AND DUP2 MSTORE PUSH1 0x20 ADD SWAP1 DUP2 MSTORE PUSH1 0x20 ADD PUSH1 0x0 KECCAK256 DUP2 SWAP1 SSTORE POP DUP1 DUP5 PUSH2 0xF91 SWAP2 SWAP1 PUSH2 0x24AB JUMP JUMPDEST SWAP4 POP PUSH1 0xB PUSH1 0x1 SWAP1 SLOAD SWAP1 PUSH2 0x100 EXP SWAP1 DIV PUSH20 0xFFFFFFFFFFFFFFFFFFFFFFFFFFFFFFFFFFFFFFFF AND PUSH20 0xFFFFFFFFFFFFFFFFFFFFFFFFFFFFFFFFFFFFFFFF AND DUP3 PUSH20 0xFFFFFFFFFFFFFFFFFFFFFFFFFFFFFFFFFFFFFFFF AND PUSH32 0xDDF252AD1BE2C89B69C2B068FC378DAA952BA7F163C4A11628F55A4DF523B3EF DUP4 PUSH1 0x40 MLOAD PUSH2 0x1012 SWAP2 SWAP1 PUSH2 0x2403 JUMP JUMPDEST PUSH1 0x40 MLOAD DUP1 SWAP2 SUB SWAP1 LOG3 DUP3 DUP1 PUSH1 0x1 ADD SWAP4 POP POP POP POP PUSH2 0xEA4 JUMP JUMPDEST POP DUP1 PUSH1 0x0 DUP1 PUSH1 0xB PUSH1 0x1 SWAP1 SLOAD SWAP1 PUSH2 0x100 EXP SWAP1 DIV PUSH20 0xFFFFFFFFFFFFFFFFFFFFFFFFFFFFFFFFFFFFFFFF AND PUSH20 0xFFFFFFFFFFFFFFFFFFFFFFFFFFFFFFFFFFFFFFFF AND PUSH20 0xFFFFFFFFFFFFFFFFFFFFFFFFFFFFFFFFFFFFFFFF AND DUP2 MSTORE PUSH1 0x20 ADD SWAP1 DUP2 MSTORE PUSH1 0x20 ADD PUSH1 0x0 KECCAK256 PUSH1 0x0 DUP3 DUP3 SLOAD PUSH2 0x109A SWAP2 SWAP1 PUSH2 0x24AB JUMP JUMPDEST SWAP3 POP POP DUP2 SWAP1 SSTORE POP POP POP POP POP JUMP JUMPDEST PUSH1 0x60 PUSH1 0x4 DUP1 SLOAD PUSH2 0x10B6 SWAP1 PUSH2 0x25FA JUMP JUMPDEST DUP1 PUSH1 0x1F ADD PUSH1 0x20 DUP1 SWAP2 DIV MUL PUSH1 0x20 ADD PUSH1 0x40 MLOAD SWAP1 DUP2 ADD PUSH1 0x40 MSTORE DUP1 SWAP3 SWAP2 SWAP1 DUP2 DUP2 MSTORE PUSH1 0x20 ADD DUP3 DUP1 SLOAD PUSH2 0x10E2 SWAP1 PUSH2 0x25FA JUMP JUMPDEST DUP1 ISZERO PUSH2 0x112F JUMPI DUP1 PUSH1 0x1F LT PUSH2 0x1104 JUMPI PUSH2 0x100 DUP1 DUP4 SLOAD DIV MUL DUP4 MSTORE SWAP2 PUSH1 0x20 ADD SWAP2 PUSH2 0x112F JUMP JUMPDEST DUP3 ADD SWAP2 SWAP1 PUSH1 0x0 MSTORE PUSH1 0x20 PUSH1 0x0 KECCAK256 SWAP1 JUMPDEST DUP2 SLOAD DUP2 MSTORE SWAP1 PUSH1 0x1 ADD SWAP1 PUSH1 0x20 ADD DUP1 DUP4 GT PUSH2 0x1112 JUMPI DUP3 SWAP1 SUB PUSH1 0x1F AND DUP3 ADD SWAP2 JUMPDEST POP POP POP POP POP SWAP1 POP SWAP1 JUMP JUMPDEST PUSH1 0x0 DUP3 DUP3 PUSH1 0xB PUSH1 0x0 SWAP1 SLOAD SWAP1 PUSH2 0x100 EXP SWAP1 DIV PUSH1 0xFF AND ISZERO PUSH2 0x11EB JUMPI PUSH1 0xB PUSH1 0x1 SWAP1 SLOAD SWAP1 PUSH2 0x100 EXP SWAP1 DIV PUSH20 0xFFFFFFFFFFFFFFFFFFFFFFFFFFFFFFFFFFFFFFFF AND PUSH20 0xFFFFFFFFFFFFFFFFFFFFFFFFFFFFFFFFFFFFFFFF AND PUSH4 0x568C75A9 PUSH2 0x1198 PUSH2 0x194C JUMP JUMPDEST DUP5 DUP5 PUSH1 0x40 MLOAD DUP5 PUSH4 0xFFFFFFFF AND PUSH1 0xE0 SHL DUP2 MSTORE PUSH1 0x4 ADD PUSH2 0x11B8 SWAP4 SWAP3 SWAP2 SWAP1 PUSH2 0x21B4 JUMP JUMPDEST PUSH1 0x0 PUSH1 0x40 MLOAD DUP1 DUP4 SUB DUP2 PUSH1 0x0 DUP8 DUP1 EXTCODESIZE ISZERO DUP1 ISZERO PUSH2 0x11D2 JUMPI PUSH1 0x0 DUP1 REVERT JUMPDEST POP GAS CALL ISZERO DUP1 ISZERO PUSH2 0x11E6 JUMPI RETURNDATASIZE PUSH1 0x0 DUP1 RETURNDATACOPY RETURNDATASIZE PUSH1 0x0 REVERT JUMPDEST POP POP POP POP JUMPDEST PUSH1 0x0 PUSH1 0x1 PUSH1 0x0 PUSH2 0x11F9 PUSH2 0x194C JUMP JUMPDEST PUSH20 0xFFFFFFFFFFFFFFFFFFFFFFFFFFFFFFFFFFFFFFFF AND PUSH20 0xFFFFFFFFFFFFFFFFFFFFFFFFFFFFFFFFFFFFFFFF AND DUP2 MSTORE PUSH1 0x20 ADD SWAP1 DUP2 MSTORE PUSH1 0x20 ADD PUSH1 0x0 KECCAK256 PUSH1 0x0 DUP8 PUSH20 0xFFFFFFFFFFFFFFFFFFFFFFFFFFFFFFFFFFFFFFFF AND PUSH20 0xFFFFFFFFFFFFFFFFFFFFFFFFFFFFFFFFFFFFFFFF AND DUP2 MSTORE PUSH1 0x20 ADD SWAP1 DUP2 MSTORE PUSH1 0x20 ADD PUSH1 0x0 KECCAK256 SLOAD SWAP1 POP DUP5 DUP2 LT ISZERO PUSH2 0x12B6 JUMPI PUSH1 0x40 MLOAD PUSH32 0x8C379A000000000000000000000000000000000000000000000000000000000 DUP2 MSTORE PUSH1 0x4 ADD PUSH2 0x12AD SWAP1 PUSH2 0x23E3 JUMP JUMPDEST PUSH1 0x40 MLOAD DUP1 SWAP2 SUB SWAP1 REVERT JUMPDEST PUSH2 0x12D3 PUSH2 0x12C1 PUSH2 0x194C JUMP JUMPDEST DUP8 DUP8 DUP5 PUSH2 0x12CE SWAP2 SWAP1 PUSH2 0x2501 JUMP JUMPDEST PUSH2 0x1954 JUMP JUMPDEST PUSH1 0x1 SWAP4 POP POP POP POP SWAP3 SWAP2 POP POP JUMP JUMPDEST PUSH1 0x0 DUP3 DUP3 PUSH1 0xB PUSH1 0x0 SWAP1 SLOAD SWAP1 PUSH2 0x100 EXP SWAP1 DIV PUSH1 0xFF AND ISZERO PUSH2 0x1392 JUMPI PUSH1 0xB PUSH1 0x1 SWAP1 SLOAD SWAP1 PUSH2 0x100 EXP SWAP1 DIV PUSH20 0xFFFFFFFFFFFFFFFFFFFFFFFFFFFFFFFFFFFFFFFF AND PUSH20 0xFFFFFFFFFFFFFFFFFFFFFFFFFFFFFFFFFFFFFFFF AND PUSH4 0x1FFB811F PUSH2 0x133F PUSH2 0x194C JUMP JUMPDEST DUP5 DUP5 PUSH1 0x40 MLOAD DUP5 PUSH4 0xFFFFFFFF AND PUSH1 0xE0 SHL DUP2 MSTORE PUSH1 0x4 ADD PUSH2 0x135F SWAP4 SWAP3 SWAP2 SWAP1 PUSH2 0x21B4 JUMP JUMPDEST PUSH1 0x0 PUSH1 0x40 MLOAD DUP1 DUP4 SUB DUP2 PUSH1 0x0 DUP8 DUP1 EXTCODESIZE ISZERO DUP1 ISZERO PUSH2 0x1379 JUMPI PUSH1 0x0 DUP1 REVERT JUMPDEST POP GAS CALL ISZERO DUP1 ISZERO PUSH2 0x138D JUMPI RETURNDATASIZE PUSH1 0x0 DUP1 RETURNDATACOPY RETURNDATASIZE PUSH1 0x0 REVERT JUMPDEST POP POP POP POP JUMPDEST PUSH2 0x13A4 PUSH2 0x139D PUSH2 0x194C JUMP JUMPDEST DUP7 DUP7 PUSH2 0x1A3F JUMP JUMPDEST PUSH1 0x1 SWAP3 POP POP POP SWAP3 SWAP2 POP POP JUMP JUMPDEST PUSH1 0x5 PUSH1 0x0 SWAP1 SLOAD SWAP1 PUSH2 0x100 EXP SWAP1 DIV PUSH20 0xFFFFFFFFFFFFFFFFFFFFFFFFFFFFFFFFFFFFFFFF AND PUSH20 0xFFFFFFFFFFFFFFFFFFFFFFFFFFFFFFFFFFFFFFFF AND PUSH2 0x13F1 PUSH2 0x194C JUMP JUMPDEST PUSH20 0xFFFFFFFFFFFFFFFFFFFFFFFFFFFFFFFFFFFFFFFF AND EQ PUSH2 0x1447 JUMPI PUSH1 0x40 MLOAD PUSH32 0x8C379A000000000000000000000000000000000000000000000000000000000 DUP2 MSTORE PUSH1 0x4 ADD PUSH2 0x143E SWAP1 PUSH2 0x2363 JUMP JUMPDEST PUSH1 0x40 MLOAD DUP1 SWAP2 SUB SWAP1 REVERT JUMPDEST PUSH1 0x0 PUSH1 0xA SLOAD EQ ISZERO PUSH2 0x148D JUMPI PUSH1 0x40 MLOAD PUSH32 0x8C379A000000000000000000000000000000000000000000000000000000000 DUP2 MSTORE PUSH1 0x4 ADD PUSH2 0x1484 SWAP1 PUSH2 0x22E3 JUMP JUMPDEST PUSH1 0x40 MLOAD DUP1 SWAP2 SUB SWAP1 REVERT JUMPDEST TIMESTAMP PUSH1 0xA SLOAD GT ISZERO PUSH2 0x14D2 JUMPI PUSH1 0x40 MLOAD PUSH32 0x8C379A000000000000000000000000000000000000000000000000000000000 DUP2 MSTORE PUSH1 0x4 ADD PUSH2 0x14C9 SWAP1 PUSH2 0x2263 JUMP JUMPDEST PUSH1 0x40 MLOAD DUP1 SWAP2 SUB SWAP1 REVERT JUMPDEST PUSH1 0x0 PUSH1 0xB PUSH1 0x0 PUSH2 0x100 EXP DUP2 SLOAD DUP2 PUSH1 0xFF MUL NOT AND SWAP1 DUP4 ISZERO ISZERO MUL OR SWAP1 SSTORE POP PUSH1 0x0 PUSH1 0xA DUP2 SWAP1 SSTORE POP PUSH32 0x3EB72350C9C7928D31E9AB450BFFF2C159434AA4B82658A7D8EAE7F109CB4E7B PUSH1 0x40 MLOAD PUSH1 0x40 MLOAD DUP1 SWAP2 SUB SWAP1 LOG1 JUMP JUMPDEST PUSH1 0x6 PUSH1 0x0 SWAP1 SLOAD SWAP1 PUSH2 0x100 EXP SWAP1 DIV PUSH20 0xFFFFFFFFFFFFFFFFFFFFFFFFFFFFFFFFFFFFFFFF AND PUSH20 0xFFFFFFFFFFFFFFFFFFFFFFFFFFFFFFFFFFFFFFFF AND PUSH2 0x1564 PUSH2 0x194C JUMP JUMPDEST PUSH20 0xFFFFFFFFFFFFFFFFFFFFFFFFFFFFFFFFFFFFFFFF AND EQ PUSH2 0x15BA JUMPI PUSH1 0x40 MLOAD PUSH32 0x8C379A000000000000000000000000000000000000000000000000000000000 DUP2 MSTORE PUSH1 0x4 ADD PUSH2 0x15B1 SWAP1 PUSH2 0x2323 JUMP JUMPDEST PUSH1 0x40 MLOAD DUP1 SWAP2 SUB SWAP1 REVERT JUMPDEST PUSH1 0x7 SLOAD DUP2 DUP1 MLOAD SWAP1 PUSH1 0x20 ADD KECCAK256 EQ PUSH2 0x1605 JUMPI PUSH1 0x40 MLOAD PUSH32 0x8C379A000000000000000000000000000000000000000000000000000000000 DUP2 MSTORE PUSH1 0x4 ADD PUSH2 0x15FC SWAP1 PUSH2 0x22C3 JUMP JUMPDEST PUSH1 0x40 MLOAD DUP1 SWAP2 SUB SWAP1 REVERT JUMPDEST PUSH1 0x6 PUSH1 0x0 SWAP1 SLOAD SWAP1 PUSH2 0x100 EXP SWAP1 DIV PUSH20 0xFFFFFFFFFFFFFFFFFFFFFFFFFFFFFFFFFFFFFFFF AND PUSH20 0xFFFFFFFFFFFFFFFFFFFFFFFFFFFFFFFFFFFFFFFF AND PUSH32 0xB94BBA6936EC7F75EE931DADF6E1A4D66B43D09B6FA0178FB13DF9B77FB5841F PUSH1 0x40 MLOAD PUSH1 0x40 MLOAD DUP1 SWAP2 SUB SWAP1 LOG2 PUSH1 0x6 PUSH1 0x0 SWAP1 SLOAD SWAP1 PUSH2 0x100 EXP SWAP1 DIV PUSH20 0xFFFFFFFFFFFFFFFFFFFFFFFFFFFFFFFFFFFFFFFF AND PUSH1 0x5 PUSH1 0x0 PUSH2 0x100 EXP DUP2 SLOAD DUP2 PUSH20 0xFFFFFFFFFFFFFFFFFFFFFFFFFFFFFFFFFFFFFFFF MUL NOT AND SWAP1 DUP4 PUSH20 0xFFFFFFFFFFFFFFFFFFFFFFFFFFFFFFFFFFFFFFFF AND MUL OR SWAP1 SSTORE POP PUSH1 0x0 PUSH1 0x6 PUSH1 0x0 PUSH2 0x100 EXP DUP2 SLOAD DUP2 PUSH20 0xFFFFFFFFFFFFFFFFFFFFFFFFFFFFFFFFFFFFFFFF MUL NOT AND SWAP1 DUP4 PUSH20 0xFFFFFFFFFFFFFFFFFFFFFFFFFFFFFFFFFFFFFFFF AND MUL OR SWAP1 SSTORE POP POP JUMP JUMPDEST PUSH1 0xB PUSH1 0x0 SWAP1 SLOAD SWAP1 PUSH2 0x100 EXP SWAP1 DIV PUSH1 0xFF AND DUP2 JUMP JUMPDEST PUSH1 0x5 PUSH1 0x0 SWAP1 SLOAD SWAP1 PUSH2 0x100 EXP SWAP1 DIV PUSH20 0xFFFFFFFFFFFFFFFFFFFFFFFFFFFFFFFFFFFFFFFF AND PUSH20 0xFFFFFFFFFFFFFFFFFFFFFFFFFFFFFFFFFFFFFFFF AND PUSH2 0x1766 PUSH2 0x194C JUMP JUMPDEST PUSH20 0xFFFFFFFFFFFFFFFFFFFFFFFFFFFFFFFFFFFFFFFF AND EQ PUSH2 0x17BC JUMPI PUSH1 0x40 MLOAD PUSH32 0x8C379A000000000000000000000000000000000000000000000000000000000 DUP2 MSTORE PUSH1 0x4 ADD PUSH2 0x17B3 SWAP1 PUSH2 0x2363 JUMP JUMPDEST PUSH1 0x40 MLOAD DUP1 SWAP2 SUB SWAP1 REVERT JUMPDEST PUSH1 0x0 PUSH1 0xA SLOAD EQ PUSH2 0x1801 JUMPI PUSH1 0x40 MLOAD PUSH32 0x8C379A000000000000000000000000000000000000000000000000000000000 DUP2 MSTORE PUSH1 0x4 ADD PUSH2 0x17F8 SWAP1 PUSH2 0x2343 JUMP JUMPDEST PUSH1 0x40 MLOAD DUP1 SWAP2 SUB SWAP1 REVERT JUMPDEST PUSH1 0xB PUSH1 0x0 SWAP1 SLOAD SWAP1 PUSH2 0x100 EXP SWAP1 DIV PUSH1 0xFF AND PUSH2 0x1850 JUMPI PUSH1 0x40 MLOAD PUSH32 0x8C379A000000000000000000000000000000000000000000000000000000000 DUP2 MSTORE PUSH1 0x4 ADD PUSH2 0x1847 SWAP1 PUSH2 0x23A3 JUMP JUMPDEST PUSH1 0x40 MLOAD DUP1 SWAP2 SUB SWAP1 REVERT JUMPDEST PUSH1 0x9 SLOAD TIMESTAMP PUSH2 0x185E SWAP2 SWAP1 PUSH2 0x24AB JUMP JUMPDEST PUSH1 0xA DUP2 SWAP1 SSTORE POP PUSH32 0x6CA688E6E3DDD707280140B2BF0106AFE883689B6C74E68CBD517576DD9C245A PUSH1 0xA SLOAD PUSH1 0x40 MLOAD PUSH2 0x1895 SWAP2 SWAP1 PUSH2 0x2403 JUMP JUMPDEST PUSH1 0x40 MLOAD DUP1 SWAP2 SUB SWAP1 LOG1 JUMP JUMPDEST PUSH1 0x0 PUSH1 0x1 PUSH1 0x0 DUP5 PUSH20 0xFFFFFFFFFFFFFFFFFFFFFFFFFFFFFFFFFFFFFFFF AND PUSH20 0xFFFFFFFFFFFFFFFFFFFFFFFFFFFFFFFFFFFFFFFF AND DUP2 MSTORE PUSH1 0x20 ADD SWAP1 DUP2 MSTORE PUSH1 0x20 ADD PUSH1 0x0 KECCAK256 PUSH1 0x0 DUP4 PUSH20 0xFFFFFFFFFFFFFFFFFFFFFFFFFFFFFFFFFFFFFFFF AND PUSH20 0xFFFFFFFFFFFFFFFFFFFFFFFFFFFFFFFFFFFFFFFF AND DUP2 MSTORE PUSH1 0x20 ADD SWAP1 DUP2 MSTORE PUSH1 0x20 ADD PUSH1 0x0 KECCAK256 SLOAD SWAP1 POP SWAP3 SWAP2 POP POP JUMP JUMPDEST PUSH1 0x8 PUSH1 0x0 SWAP1 SLOAD SWAP1 PUSH2 0x100 EXP SWAP1 DIV PUSH20 0xFFFFFFFFFFFFFFFFFFFFFFFFFFFFFFFFFFFFFFFF AND DUP2 JUMP JUMPDEST PUSH1 0x0 CALLER SWAP1 POP SWAP1 JUMP JUMPDEST DUP1 PUSH1 0x1 PUSH1 0x0 DUP6 PUSH20 0xFFFFFFFFFFFFFFFFFFFFFFFFFFFFFFFFFFFFFFFF AND PUSH20 0xFFFFFFFFFFFFFFFFFFFFFFFFFFFFFFFFFFFFFFFF AND DUP2 MSTORE PUSH1 0x20 ADD SWAP1 DUP2 MSTORE PUSH1 0x20 ADD PUSH1 0x0 KECCAK256 PUSH1 0x0 DUP5 PUSH20 0xFFFFFFFFFFFFFFFFFFFFFFFFFFFFFFFFFFFFFFFF AND PUSH20 0xFFFFFFFFFFFFFFFFFFFFFFFFFFFFFFFFFFFFFFFF AND DUP2 MSTORE PUSH1 0x20 ADD SWAP1 DUP2 MSTORE PUSH1 0x20 ADD PUSH1 0x0 KECCAK256 DUP2 SWAP1 SSTORE POP DUP2 PUSH20 0xFFFFFFFFFFFFFFFFFFFFFFFFFFFFFFFFFFFFFFFF AND DUP4 PUSH20 0xFFFFFFFFFFFFFFFFFFFFFFFFFFFFFFFFFFFFFFFF AND PUSH32 0x8C5BE1E5EBEC7D5BD14F71427D1E84F3DD0314C0F7B2291E5B200AC8C7C3B925 DUP4 PUSH1 0x40 MLOAD PUSH2 0x1A32 SWAP2 SWAP1 PUSH2 0x2403 JUMP JUMPDEST PUSH1 0x40 MLOAD DUP1 SWAP2 SUB SWAP1 LOG3 POP POP POP JUMP JUMPDEST PUSH1 0x0 PUSH20 0xFFFFFFFFFFFFFFFFFFFFFFFFFFFFFFFFFFFFFFFF AND DUP4 PUSH20 0xFFFFFFFFFFFFFFFFFFFFFFFFFFFFFFFFFFFFFFFF AND EQ ISZERO PUSH2 0x1AAF JUMPI PUSH1 0x40 MLOAD PUSH32 0x8C379A000000000000000000000000000000000000000000000000000000000 DUP2 MSTORE PUSH1 0x4 ADD PUSH2 0x1AA6 SWAP1 PUSH2 0x2303 JUMP JUMPDEST PUSH1 0x40 MLOAD DUP1 SWAP2 SUB SWAP1 REVERT JUMPDEST PUSH1 0x0 DUP1 PUSH1 0x0 DUP6 PUSH20 0xFFFFFFFFFFFFFFFFFFFFFFFFFFFFFFFFFFFFFFFF AND PUSH20 0xFFFFFFFFFFFFFFFFFFFFFFFFFFFFFFFFFFFFFFFF AND DUP2 MSTORE PUSH1 0x20 ADD SWAP1 DUP2 MSTORE PUSH1 0x20 ADD PUSH1 0x0 KECCAK256 SLOAD SWAP1 POP DUP2 DUP2 LT ISZERO PUSH2 0x1B35 JUMPI PUSH1 0x40 MLOAD PUSH32 0x8C379A000000000000000000000000000000000000000000000000000000000 DUP2 MSTORE PUSH1 0x4 ADD PUSH2 0x1B2C SWAP1 PUSH2 0x2283 JUMP JUMPDEST PUSH1 0x40 MLOAD DUP1 SWAP2 SUB SWAP1 REVERT JUMPDEST DUP2 DUP2 PUSH2 0x1B41 SWAP2 SWAP1 PUSH2 0x2501 JUMP JUMPDEST PUSH1 0x0 DUP1 DUP7 PUSH20 0xFFFFFFFFFFFFFFFFFFFFFFFFFFFFFFFFFFFFFFFF AND PUSH20 0xFFFFFFFFFFFFFFFFFFFFFFFFFFFFFFFFFFFFFFFF AND DUP2 MSTORE PUSH1 0x20 ADD SWAP1 DUP2 MSTORE PUSH1 0x20 ADD PUSH1 0x0 KECCAK256 DUP2 SWAP1 SSTORE POP DUP2 PUSH1 0x0 DUP1 DUP6 PUSH20 0xFFFFFFFFFFFFFFFFFFFFFFFFFFFFFFFFFFFFFFFF AND PUSH20 0xFFFFFFFFFFFFFFFFFFFFFFFFFFFFFFFFFFFFFFFF AND DUP2 MSTORE PUSH1 0x20 ADD SWAP1 DUP2 MSTORE PUSH1 0x20 ADD PUSH1 0x0 KECCAK256 PUSH1 0x0 DUP3 DUP3 SLOAD PUSH2 0x1BD1 SWAP2 SWAP1 PUSH2 0x24AB JUMP JUMPDEST SWAP3 POP POP DUP2 SWAP1 SSTORE POP DUP3 PUSH20 0xFFFFFFFFFFFFFFFFFFFFFFFFFFFFFFFFFFFFFFFF AND DUP5 PUSH20 0xFFFFFFFFFFFFFFFFFFFFFFFFFFFFFFFFFFFFFFFF AND PUSH32 0xDDF252AD1BE2C89B69C2B068FC378DAA952BA7F163C4A11628F55A4DF523B3EF DUP5 PUSH1 0x40 MLOAD PUSH2 0x1C35 SWAP2 SWAP1 PUSH2 0x2403 JUMP JUMPDEST PUSH1 0x40 MLOAD DUP1 SWAP2 SUB SWAP1 LOG3 POP POP POP POP JUMP JUMPDEST PUSH1 0x0 PUSH2 0x1C56 PUSH2 0x1C51 DUP5 PUSH2 0x245E JUMP JUMPDEST PUSH2 0x2439 JUMP JUMPDEST SWAP1 POP DUP3 DUP2 MSTORE PUSH1 0x20 DUP2 ADD DUP5 DUP5 DUP5 ADD GT ISZERO PUSH2 0x1C6E JUMPI PUSH1 0x0 DUP1 REVERT JUMPDEST PUSH2 0x1C79 DUP5 DUP3 DUP6 PUSH2 0x25B8 JUMP JUMPDEST POP SWAP4 SWAP3 POP POP POP JUMP JUMPDEST PUSH1 0x0 DUP2 CALLDATALOAD SWAP1 POP PUSH2 0x1C90 DUP2 PUSH2 0x29D1 JUMP JUMPDEST SWAP3 SWAP2 POP POP JUMP JUMPDEST PUSH1 0x0 DUP1 DUP4 PUSH1 0x1F DUP5 ADD SLT PUSH2 0x1CA8 JUMPI PUSH1 0x0 DUP1 REVERT JUMPDEST DUP3 CALLDATALOAD SWAP1 POP PUSH8 0xFFFFFFFFFFFFFFFF DUP2 GT ISZERO PUSH2 0x1CC1 JUMPI PUSH1 0x0 DUP1 REVERT JUMPDEST PUSH1 0x20 DUP4 ADD SWAP2 POP DUP4 PUSH1 0x20 DUP3 MUL DUP4 ADD GT ISZERO PUSH2 0x1CD9 JUMPI PUSH1 0x0 DUP1 REVERT JUMPDEST SWAP3 POP SWAP3 SWAP1 POP JUMP JUMPDEST PUSH1 0x0 DUP2 CALLDATALOAD SWAP1 POP PUSH2 0x1CEF DUP2 PUSH2 0x29E8 JUMP JUMPDEST SWAP3 SWAP2 POP POP JUMP JUMPDEST PUSH1 0x0 DUP3 PUSH1 0x1F DUP4 ADD SLT PUSH2 0x1D06 JUMPI PUSH1 0x0 DUP1 REVERT JUMPDEST DUP2 CALLDATALOAD PUSH2 0x1D16 DUP5 DUP3 PUSH1 0x20 DUP7 ADD PUSH2 0x1C43 JUMP JUMPDEST SWAP2 POP POP SWAP3 SWAP2 POP POP JUMP JUMPDEST PUSH1 0x0 DUP2 CALLDATALOAD SWAP1 POP PUSH2 0x1D2E DUP2 PUSH2 0x29FF JUMP JUMPDEST SWAP3 SWAP2 POP POP JUMP JUMPDEST PUSH1 0x0 PUSH1 0x20 DUP3 DUP5 SUB SLT ISZERO PUSH2 0x1D46 JUMPI PUSH1 0x0 DUP1 REVERT JUMPDEST PUSH1 0x0 PUSH2 0x1D54 DUP5 DUP3 DUP6 ADD PUSH2 0x1C81 JUMP JUMPDEST SWAP2 POP POP SWAP3 SWAP2 POP POP JUMP JUMPDEST PUSH1 0x0 DUP1 PUSH1 0x40 DUP4 DUP6 SUB SLT ISZERO PUSH2 0x1D70 JUMPI PUSH1 0x0 DUP1 REVERT JUMPDEST PUSH1 0x0 PUSH2 0x1D7E DUP6 DUP3 DUP7 ADD PUSH2 0x1C81 JUMP JUMPDEST SWAP3 POP POP PUSH1 0x20 PUSH2 0x1D8F DUP6 DUP3 DUP7 ADD PUSH2 0x1C81 JUMP JUMPDEST SWAP2 POP POP SWAP3 POP SWAP3 SWAP1 POP JUMP JUMPDEST PUSH1 0x0 DUP1 PUSH1 0x0 PUSH1 0x60 DUP5 DUP7 SUB SLT ISZERO PUSH2 0x1DAE JUMPI PUSH1 0x0 DUP1 REVERT JUMPDEST PUSH1 0x0 PUSH2 0x1DBC DUP7 DUP3 DUP8 ADD PUSH2 0x1C81 JUMP JUMPDEST SWAP4 POP POP PUSH1 0x20 PUSH2 0x1DCD DUP7 DUP3 DUP8 ADD PUSH2 0x1C81 JUMP JUMPDEST SWAP3 POP POP PUSH1 0x40 PUSH2 0x1DDE DUP7 DUP3 DUP8 ADD PUSH2 0x1D1F JUMP JUMPDEST SWAP2 POP POP SWAP3 POP SWAP3 POP SWAP3 JUMP JUMPDEST PUSH1 0x0 DUP1 PUSH1 0x40 DUP4 DUP6 SUB SLT ISZERO PUSH2 0x1DFB JUMPI PUSH1 0x0 DUP1 REVERT JUMPDEST PUSH1 0x0 PUSH2 0x1E09 DUP6 DUP3 DUP7 ADD PUSH2 0x1C81 JUMP JUMPDEST SWAP3 POP POP PUSH1 0x20 PUSH2 0x1E1A DUP6 DUP3 DUP7 ADD PUSH2 0x1CE0 JUMP JUMPDEST SWAP2 POP POP SWAP3 POP SWAP3 SWAP1 POP JUMP JUMPDEST PUSH1 0x0 DUP1 PUSH1 0x40 DUP4 DUP6 SUB SLT ISZERO PUSH2 0x1E37 JUMPI PUSH1 0x0 DUP1 REVERT JUMPDEST PUSH1 0x0 PUSH2 0x1E45 DUP6 DUP3 DUP7 ADD PUSH2 0x1C81 JUMP JUMPDEST SWAP3 POP POP PUSH1 0x20 PUSH2 0x1E56 DUP6 DUP3 DUP7 ADD PUSH2 0x1D1F JUMP JUMPDEST SWAP2 POP POP SWAP3 POP SWAP3 SWAP1 POP JUMP JUMPDEST PUSH1 0x0 DUP1 PUSH1 0x20 DUP4 DUP6 SUB SLT ISZERO PUSH2 0x1E73 JUMPI PUSH1 0x0 DUP1 REVERT JUMPDEST PUSH1 0x0 DUP4 ADD CALLDATALOAD PUSH8 0xFFFFFFFFFFFFFFFF DUP2 GT ISZERO PUSH2 0x1E8D JUMPI PUSH1 0x0 DUP1 REVERT JUMPDEST PUSH2 0x1E99 DUP6 DUP3 DUP7 ADD PUSH2 0x1C96 JUMP JUMPDEST SWAP3 POP SWAP3 POP POP SWAP3 POP SWAP3 SWAP1 POP JUMP JUMPDEST PUSH1 0x0 PUSH1 0x20 DUP3 DUP5 SUB SLT ISZERO PUSH2 0x1EB7 JUMPI PUSH1 0x0 DUP1 REVERT JUMPDEST PUSH1 0x0 DUP3 ADD CALLDATALOAD PUSH8 0xFFFFFFFFFFFFFFFF DUP2 GT ISZERO PUSH2 0x1ED1 JUMPI PUSH1 0x0 DUP1 REVERT JUMPDEST PUSH2 0x1EDD DUP5 DUP3 DUP6 ADD PUSH2 0x1CF5 JUMP JUMPDEST SWAP2 POP POP SWAP3 SWAP2 POP POP JUMP JUMPDEST PUSH2 0x1EEF DUP2 PUSH2 0x2535 JUMP JUMPDEST DUP3 MSTORE POP POP JUMP JUMPDEST PUSH2 0x1EFE DUP2 PUSH2 0x2547 JUMP JUMPDEST DUP3 MSTORE POP POP JUMP JUMPDEST PUSH2 0x1F0D DUP2 PUSH2 0x2594 JUMP JUMPDEST DUP3 MSTORE POP POP JUMP JUMPDEST PUSH1 0x0 PUSH2 0x1F1E DUP3 PUSH2 0x248F JUMP JUMPDEST PUSH2 0x1F28 DUP2 DUP6 PUSH2 0x249A JUMP JUMPDEST SWAP4 POP PUSH2 0x1F38 DUP2 DUP6 PUSH1 0x20 DUP7 ADD PUSH2 0x25C7 JUMP JUMPDEST PUSH2 0x1F41 DUP2 PUSH2 0x26EA JUMP JUMPDEST DUP5 ADD SWAP2 POP POP SWAP3 SWAP2 POP POP JUMP JUMPDEST PUSH1 0x0 PUSH2 0x1F59 PUSH1 0x1F DUP4 PUSH2 0x249A JUMP JUMPDEST SWAP2 POP PUSH2 0x1F64 DUP3 PUSH2 0x26FB JUMP JUMPDEST PUSH1 0x20 DUP3 ADD SWAP1 POP SWAP2 SWAP1 POP JUMP JUMPDEST PUSH1 0x0 PUSH2 0x1F7C PUSH1 0x1D DUP4 PUSH2 0x249A JUMP JUMPDEST SWAP2 POP PUSH2 0x1F87 DUP3 PUSH2 0x2724 JUMP JUMPDEST PUSH1 0x20 DUP3 ADD SWAP1 POP SWAP2 SWAP1 POP JUMP JUMPDEST PUSH1 0x0 PUSH2 0x1F9F PUSH1 0x27 DUP4 PUSH2 0x249A JUMP JUMPDEST SWAP2 POP PUSH2 0x1FAA DUP3 PUSH2 0x274D JUMP JUMPDEST PUSH1 0x40 DUP3 ADD SWAP1 POP SWAP2 SWAP1 POP JUMP JUMPDEST PUSH1 0x0 PUSH2 0x1FC2 PUSH1 0x29 DUP4 PUSH2 0x249A JUMP JUMPDEST SWAP2 POP PUSH2 0x1FCD DUP3 PUSH2 0x279C JUMP JUMPDEST PUSH1 0x40 DUP3 ADD SWAP1 POP SWAP2 SWAP1 POP JUMP JUMPDEST PUSH1 0x0 PUSH2 0x1FE5 PUSH1 0x13 DUP4 PUSH2 0x249A JUMP JUMPDEST SWAP2 POP PUSH2 0x1FF0 DUP3 PUSH2 0x27EB JUMP JUMPDEST PUSH1 0x20 DUP3 ADD SWAP1 POP SWAP2 SWAP1 POP JUMP JUMPDEST PUSH1 0x0 PUSH2 0x2008 PUSH1 0x1C DUP4 PUSH2 0x249A JUMP JUMPDEST SWAP2 POP PUSH2 0x2013 DUP3 PUSH2 0x2814 JUMP JUMPDEST PUSH1 0x20 DUP3 ADD SWAP1 POP SWAP2 SWAP1 POP JUMP JUMPDEST PUSH1 0x0 PUSH2 0x202B PUSH1 0x26 DUP4 PUSH2 0x249A JUMP JUMPDEST SWAP2 POP PUSH2 0x2036 DUP3 PUSH2 0x283D JUMP JUMPDEST PUSH1 0x40 DUP3 ADD SWAP1 POP SWAP2 SWAP1 POP JUMP JUMPDEST PUSH1 0x0 PUSH2 0x204E PUSH1 0x19 DUP4 PUSH2 0x249A JUMP JUMPDEST SWAP2 POP PUSH2 0x2059 DUP3 PUSH2 0x288C JUMP JUMPDEST PUSH1 0x20 DUP3 ADD SWAP1 POP SWAP2 SWAP1 POP JUMP JUMPDEST PUSH1 0x0 PUSH2 0x2071 PUSH1 0x20 DUP4 PUSH2 0x249A JUMP JUMPDEST SWAP2 POP PUSH2 0x207C DUP3 PUSH2 0x28B5 JUMP JUMPDEST PUSH1 0x20 DUP3 ADD SWAP1 POP SWAP2 SWAP1 POP JUMP JUMPDEST PUSH1 0x0 PUSH2 0x2094 PUSH1 0x1E DUP4 PUSH2 0x249A JUMP JUMPDEST SWAP2 POP PUSH2 0x209F DUP3 PUSH2 0x28DE JUMP JUMPDEST PUSH1 0x20 DUP3 ADD SWAP1 POP SWAP2 SWAP1 POP JUMP JUMPDEST PUSH1 0x0 PUSH2 0x20B7 PUSH1 0x1B DUP4 PUSH2 0x249A JUMP JUMPDEST SWAP2 POP PUSH2 0x20C2 DUP3 PUSH2 0x2907 JUMP JUMPDEST PUSH1 0x20 DUP3 ADD SWAP1 POP SWAP2 SWAP1 POP JUMP JUMPDEST PUSH1 0x0 PUSH2 0x20DA PUSH1 0x1C DUP4 PUSH2 0x249A JUMP JUMPDEST SWAP2 POP PUSH2 0x20E5 DUP3 PUSH2 0x2930 JUMP JUMPDEST PUSH1 0x20 DUP3 ADD SWAP1 POP SWAP2 SWAP1 POP JUMP JUMPDEST PUSH1 0x0 PUSH2 0x20FD PUSH1 0x1E DUP4 PUSH2 0x249A JUMP JUMPDEST SWAP2 POP PUSH2 0x2108 DUP3 PUSH2 0x2959 JUMP JUMPDEST PUSH1 0x20 DUP3 ADD SWAP1 POP SWAP2 SWAP1 POP JUMP JUMPDEST PUSH1 0x0 PUSH2 0x2120 PUSH1 0x26 DUP4 PUSH2 0x249A JUMP JUMPDEST SWAP2 POP PUSH2 0x212B DUP3 PUSH2 0x2982 JUMP JUMPDEST PUSH1 0x40 DUP3 ADD SWAP1 POP SWAP2 SWAP1 POP JUMP JUMPDEST PUSH2 0x213F DUP2 PUSH2 0x257D JUMP JUMPDEST DUP3 MSTORE POP POP JUMP JUMPDEST PUSH2 0x214E DUP2 PUSH2 0x2587 JUMP JUMPDEST DUP3 MSTORE POP POP JUMP JUMPDEST PUSH1 0x0 PUSH1 0x20 DUP3 ADD SWAP1 POP PUSH2 0x2169 PUSH1 0x0 DUP4 ADD DUP5 PUSH2 0x1EE6 JUMP JUMPDEST SWAP3 SWAP2 POP POP JUMP JUMPDEST PUSH1 0x0 PUSH1 0x80 DUP3 ADD SWAP1 POP PUSH2 0x2184 PUSH1 0x0 DUP4 ADD DUP8 PUSH2 0x1EE6 JUMP JUMPDEST PUSH2 0x2191 PUSH1 0x20 DUP4 ADD DUP7 PUSH2 0x1EE6 JUMP JUMPDEST PUSH2 0x219E PUSH1 0x40 DUP4 ADD DUP6 PUSH2 0x1EE6 JUMP JUMPDEST PUSH2 0x21AB PUSH1 0x60 DUP4 ADD DUP5 PUSH2 0x2136 JUMP JUMPDEST SWAP6 SWAP5 POP POP POP POP POP JUMP JUMPDEST PUSH1 0x0 PUSH1 0x60 DUP3 ADD SWAP1 POP PUSH2 0x21C9 PUSH1 0x0 DUP4 ADD DUP7 PUSH2 0x1EE6 JUMP JUMPDEST PUSH2 0x21D6 PUSH1 0x20 DUP4 ADD DUP6 PUSH2 0x1EE6 JUMP JUMPDEST PUSH2 0x21E3 PUSH1 0x40 DUP4 ADD DUP5 PUSH2 0x2136 JUMP JUMPDEST SWAP5 SWAP4 POP POP POP POP JUMP JUMPDEST PUSH1 0x0 PUSH1 0x20 DUP3 ADD SWAP1 POP PUSH2 0x2200 PUSH1 0x0 DUP4 ADD DUP5 PUSH2 0x1EF5 JUMP JUMPDEST SWAP3 SWAP2 POP POP JUMP JUMPDEST PUSH1 0x0 PUSH1 0x20 DUP3 ADD SWAP1 POP PUSH2 0x221B PUSH1 0x0 DUP4 ADD DUP5 PUSH2 0x1F04 JUMP JUMPDEST SWAP3 SWAP2 POP POP JUMP JUMPDEST PUSH1 0x0 PUSH1 0x20 DUP3 ADD SWAP1 POP DUP2 DUP2 SUB PUSH1 0x0 DUP4 ADD MSTORE PUSH2 0x223B DUP2 DUP5 PUSH2 0x1F13 JUMP JUMPDEST SWAP1 POP SWAP3 SWAP2 POP POP JUMP JUMPDEST PUSH1 0x0 PUSH1 0x20 DUP3 ADD SWAP1 POP DUP2 DUP2 SUB PUSH1 0x0 DUP4 ADD MSTORE PUSH2 0x225C DUP2 PUSH2 0x1F4C JUMP JUMPDEST SWAP1 POP SWAP2 SWAP1 POP JUMP JUMPDEST PUSH1 0x0 PUSH1 0x20 DUP3 ADD SWAP1 POP DUP2 DUP2 SUB PUSH1 0x0 DUP4 ADD MSTORE PUSH2 0x227C DUP2 PUSH2 0x1F6F JUMP JUMPDEST SWAP1 POP SWAP2 SWAP1 POP JUMP JUMPDEST PUSH1 0x0 PUSH1 0x20 DUP3 ADD SWAP1 POP DUP2 DUP2 SUB PUSH1 0x0 DUP4 ADD MSTORE PUSH2 0x229C DUP2 PUSH2 0x1F92 JUMP JUMPDEST SWAP1 POP SWAP2 SWAP1 POP JUMP JUMPDEST PUSH1 0x0 PUSH1 0x20 DUP3 ADD SWAP1 POP DUP2 DUP2 SUB PUSH1 0x0 DUP4 ADD MSTORE PUSH2 0x22BC DUP2 PUSH2 0x1FB5 JUMP JUMPDEST SWAP1 POP SWAP2 SWAP1 POP JUMP JUMPDEST PUSH1 0x0 PUSH1 0x20 DUP3 ADD SWAP1 POP DUP2 DUP2 SUB PUSH1 0x0 DUP4 ADD MSTORE PUSH2 0x22DC DUP2 PUSH2 0x1FD8 JUMP JUMPDEST SWAP1 POP SWAP2 SWAP1 POP JUMP JUMPDEST PUSH1 0x0 PUSH1 0x20 DUP3 ADD SWAP1 POP DUP2 DUP2 SUB PUSH1 0x0 DUP4 ADD MSTORE PUSH2 0x22FC DUP2 PUSH2 0x1FFB JUMP JUMPDEST SWAP1 POP SWAP2 SWAP1 POP JUMP JUMPDEST PUSH1 0x0 PUSH1 0x20 DUP3 ADD SWAP1 POP DUP2 DUP2 SUB PUSH1 0x0 DUP4 ADD MSTORE PUSH2 0x231C DUP2 PUSH2 0x201E JUMP JUMPDEST SWAP1 POP SWAP2 SWAP1 POP JUMP JUMPDEST PUSH1 0x0 PUSH1 0x20 DUP3 ADD SWAP1 POP DUP2 DUP2 SUB PUSH1 0x0 DUP4 ADD MSTORE PUSH2 0x233C DUP2 PUSH2 0x2041 JUMP JUMPDEST SWAP1 POP SWAP2 SWAP1 POP JUMP JUMPDEST PUSH1 0x0 PUSH1 0x20 DUP3 ADD SWAP1 POP DUP2 DUP2 SUB PUSH1 0x0 DUP4 ADD MSTORE PUSH2 0x235C DUP2 PUSH2 0x2064 JUMP JUMPDEST SWAP1 POP SWAP2 SWAP1 POP JUMP JUMPDEST PUSH1 0x0 PUSH1 0x20 DUP3 ADD SWAP1 POP DUP2 DUP2 SUB PUSH1 0x0 DUP4 ADD MSTORE PUSH2 0x237C DUP2 PUSH2 0x2087 JUMP JUMPDEST SWAP1 POP SWAP2 SWAP1 POP JUMP JUMPDEST PUSH1 0x0 PUSH1 0x20 DUP3 ADD SWAP1 POP DUP2 DUP2 SUB PUSH1 0x0 DUP4 ADD MSTORE PUSH2 0x239C DUP2 PUSH2 0x20AA JUMP JUMPDEST SWAP1 POP SWAP2 SWAP1 POP JUMP JUMPDEST PUSH1 0x0 PUSH1 0x20 DUP3 ADD SWAP1 POP DUP2 DUP2 SUB PUSH1 0x0 DUP4 ADD MSTORE PUSH2 0x23BC DUP2 PUSH2 0x20CD JUMP JUMPDEST SWAP1 POP SWAP2 SWAP1 POP JUMP JUMPDEST PUSH1 0x0 PUSH1 0x20 DUP3 ADD SWAP1 POP DUP2 DUP2 SUB PUSH1 0x0 DUP4 ADD MSTORE PUSH2 0x23DC DUP2 PUSH2 0x20F0 JUMP JUMPDEST SWAP1 POP SWAP2 SWAP1 POP JUMP JUMPDEST PUSH1 0x0 PUSH1 0x20 DUP3 ADD SWAP1 POP DUP2 DUP2 SUB PUSH1 0x0 DUP4 ADD MSTORE PUSH2 0x23FC DUP2 PUSH2 0x2113 JUMP JUMPDEST SWAP1 POP SWAP2 SWAP1 POP JUMP JUMPDEST PUSH1 0x0 PUSH1 0x20 DUP3 ADD SWAP1 POP PUSH2 0x2418 PUSH1 0x0 DUP4 ADD DUP5 PUSH2 0x2136 JUMP JUMPDEST SWAP3 SWAP2 POP POP JUMP JUMPDEST PUSH1 0x0 PUSH1 0x20 DUP3 ADD SWAP1 POP PUSH2 0x2433 PUSH1 0x0 DUP4 ADD DUP5 PUSH2 0x2145 JUMP JUMPDEST SWAP3 SWAP2 POP POP JUMP JUMPDEST PUSH1 0x0 PUSH2 0x2443 PUSH2 0x2454 JUMP JUMPDEST SWAP1 POP PUSH2 0x244F DUP3 DUP3 PUSH2 0x262C JUMP JUMPDEST SWAP2 SWAP1 POP JUMP JUMPDEST PUSH1 0x0 PUSH1 0x40 MLOAD SWAP1 POP SWAP1 JUMP JUMPDEST PUSH1 0x0 PUSH8 0xFFFFFFFFFFFFFFFF DUP3 GT ISZERO PUSH2 0x2479 JUMPI PUSH2 0x2478 PUSH2 0x26BB JUMP JUMPDEST JUMPDEST PUSH2 0x2482 DUP3 PUSH2 0x26EA JUMP JUMPDEST SWAP1 POP PUSH1 0x20 DUP2 ADD SWAP1 POP SWAP2 SWAP1 POP JUMP JUMPDEST PUSH1 0x0 DUP2 MLOAD SWAP1 POP SWAP2 SWAP1 POP JUMP JUMPDEST PUSH1 0x0 DUP3 DUP3 MSTORE PUSH1 0x20 DUP3 ADD SWAP1 POP SWAP3 SWAP2 POP POP JUMP JUMPDEST PUSH1 0x0 PUSH2 0x24B6 DUP3 PUSH2 0x257D JUMP JUMPDEST SWAP2 POP PUSH2 0x24C1 DUP4 PUSH2 0x257D JUMP JUMPDEST SWAP3 POP DUP3 PUSH32 0xFFFFFFFFFFFFFFFFFFFFFFFFFFFFFFFFFFFFFFFFFFFFFFFFFFFFFFFFFFFFFFFF SUB DUP3 GT ISZERO PUSH2 0x24F6 JUMPI PUSH2 0x24F5 PUSH2 0x265D JUMP JUMPDEST JUMPDEST DUP3 DUP3 ADD SWAP1 POP SWAP3 SWAP2 POP POP JUMP JUMPDEST PUSH1 0x0 PUSH2 0x250C DUP3 PUSH2 0x257D JUMP JUMPDEST SWAP2 POP PUSH2 0x2517 DUP4 PUSH2 0x257D JUMP JUMPDEST SWAP3 POP DUP3 DUP3 LT ISZERO PUSH2 0x252A JUMPI PUSH2 0x2529 PUSH2 0x265D JUMP JUMPDEST JUMPDEST DUP3 DUP3 SUB SWAP1 POP SWAP3 SWAP2 POP POP JUMP JUMPDEST PUSH1 0x0 PUSH2 0x2540 DUP3 PUSH2 0x255D JUMP JUMPDEST SWAP1 POP SWAP2 SWAP1 POP JUMP JUMPDEST PUSH1 0x0 DUP2 ISZERO ISZERO SWAP1 POP SWAP2 SWAP1 POP JUMP JUMPDEST PUSH1 0x0 DUP2 SWAP1 POP SWAP2 SWAP1 POP JUMP JUMPDEST PUSH1 0x0 PUSH20 0xFFFFFFFFFFFFFFFFFFFFFFFFFFFFFFFFFFFFFFFF DUP3 AND SWAP1 POP SWAP2 SWAP1 POP JUMP JUMPDEST PUSH1 0x0 DUP2 SWAP1 POP SWAP2 SWAP1 POP JUMP JUMPDEST PUSH1 0x0 PUSH1 0xFF DUP3 AND SWAP1 POP SWAP2 SWAP1 POP JUMP JUMPDEST PUSH1 0x0 PUSH2 0x259F DUP3 PUSH2 0x25A6 JUMP JUMPDEST SWAP1 POP SWAP2 SWAP1 POP JUMP JUMPDEST PUSH1 0x0 PUSH2 0x25B1 DUP3 PUSH2 0x255D JUMP JUMPDEST SWAP1 POP SWAP2 SWAP1 POP JUMP JUMPDEST DUP3 DUP2 DUP4 CALLDATACOPY PUSH1 0x0 DUP4 DUP4 ADD MSTORE POP POP POP JUMP JUMPDEST PUSH1 0x0 JUMPDEST DUP4 DUP2 LT ISZERO PUSH2 0x25E5 JUMPI DUP1 DUP3 ADD MLOAD DUP2 DUP5 ADD MSTORE PUSH1 0x20 DUP2 ADD SWAP1 POP PUSH2 0x25CA JUMP JUMPDEST DUP4 DUP2 GT ISZERO PUSH2 0x25F4 JUMPI PUSH1 0x0 DUP5 DUP5 ADD MSTORE JUMPDEST POP POP POP POP JUMP JUMPDEST PUSH1 0x0 PUSH1 0x2 DUP3 DIV SWAP1 POP PUSH1 0x1 DUP3 AND DUP1 PUSH2 0x2612 JUMPI PUSH1 0x7F DUP3 AND SWAP2 POP JUMPDEST PUSH1 0x20 DUP3 LT DUP2 EQ ISZERO PUSH2 0x2626 JUMPI PUSH2 0x2625 PUSH2 0x268C JUMP JUMPDEST JUMPDEST POP SWAP2 SWAP1 POP JUMP JUMPDEST PUSH2 0x2635 DUP3 PUSH2 0x26EA JUMP JUMPDEST DUP2 ADD DUP2 DUP2 LT PUSH8 0xFFFFFFFFFFFFFFFF DUP3 GT OR ISZERO PUSH2 0x2654 JUMPI PUSH2 0x2653 PUSH2 0x26BB JUMP JUMPDEST JUMPDEST DUP1 PUSH1 0x40 MSTORE POP POP POP JUMP JUMPDEST PUSH32 0x4E487B7100000000000000000000000000000000000000000000000000000000 PUSH1 0x0 MSTORE PUSH1 0x11 PUSH1 0x4 MSTORE PUSH1 0x24 PUSH1 0x0 REVERT JUMPDEST PUSH32 0x4E487B7100000000000000000000000000000000000000000000000000000000 PUSH1 0x0 MSTORE PUSH1 0x22 PUSH1 0x4 MSTORE PUSH1 0x24 PUSH1 0x0 REVERT JUMPDEST PUSH32 0x4E487B7100000000000000000000000000000000000000000000000000000000 PUSH1 0x0 MSTORE PUSH1 0x41 PUSH1 0x4 MSTORE PUSH1 0x24 PUSH1 0x0 REVERT JUMPDEST PUSH1 0x0 PUSH1 0x1F NOT PUSH1 0x1F DUP4 ADD AND SWAP1 POP SWAP2 SWAP1 POP JUMP JUMPDEST PUSH32 0x4C45524332303A2043616E6E6F74207365742073616D65206164647265737300 PUSH1 0x0 DUP3 ADD MSTORE POP JUMP JUMPDEST PUSH32 0x4C45524332303A2054696D65206C6F636B20696E2070726F6772657373000000 PUSH1 0x0 DUP3 ADD MSTORE POP JUMP JUMPDEST PUSH32 0x4C45524332303A207472616E7366657220616D6F756E74206578636565647320 PUSH1 0x0 DUP3 ADD MSTORE PUSH32 0x62616C616E636500000000000000000000000000000000000000000000000000 PUSH1 0x20 DUP3 ADD MSTORE POP JUMP JUMPDEST PUSH32 0x4C45524332303A207472616E7366657220616D6F756E74206578636565647320 PUSH1 0x0 DUP3 ADD MSTORE PUSH32 0x616C6C6F77616E63650000000000000000000000000000000000000000000000 PUSH1 0x20 DUP3 ADD MSTORE POP JUMP JUMPDEST PUSH32 0x4C45524332303A20496E76616C6964206B657900000000000000000000000000 PUSH1 0x0 DUP3 ADD MSTORE POP JUMP JUMPDEST PUSH32 0x4C45524332303A205475726E4F6666206E6F742070726F706F73656400000000 PUSH1 0x0 DUP3 ADD MSTORE POP JUMP JUMPDEST PUSH32 0x4C45524332303A207472616E736665722066726F6D20746865207A65726F2061 PUSH1 0x0 DUP3 ADD MSTORE PUSH32 0x6464726573730000000000000000000000000000000000000000000000000000 PUSH1 0x20 DUP3 ADD MSTORE POP JUMP JUMPDEST PUSH32 0x4C45524332303A204D7573742062652063616E64697461746500000000000000 PUSH1 0x0 DUP3 ADD MSTORE POP JUMP JUMPDEST PUSH32 0x4C45524332303A205475726E4F666620616C72656164792070726F706F736564 PUSH1 0x0 DUP3 ADD MSTORE POP JUMP JUMPDEST PUSH32 0x4C45524332303A204D757374206265207265636F766572792061646D696E0000 PUSH1 0x0 DUP3 ADD MSTORE POP JUMP JUMPDEST PUSH32 0x4C45524332303A204C6F73736C65737320616C7265616479206F6E0000000000 PUSH1 0x0 DUP3 ADD MSTORE POP JUMP JUMPDEST PUSH32 0x4C45524332303A204C6F73736C65737320616C7265616479206F666600000000 PUSH1 0x0 DUP3 ADD MSTORE POP JUMP JUMPDEST PUSH32 0x4C45524332303A204F6E6C79206C6F73736C65737320636F6E74726163740000 PUSH1 0x0 DUP3 ADD MSTORE POP JUMP JUMPDEST PUSH32 0x4C45524332303A2064656372656173656420616C6C6F77616E63652062656C6F PUSH1 0x0 DUP3 ADD MSTORE PUSH32 0x77207A65726F0000000000000000000000000000000000000000000000000000 PUSH1 0x20 DUP3 ADD MSTORE POP JUMP JUMPDEST PUSH2 0x29DA DUP2 PUSH2 0x2535 JUMP JUMPDEST DUP2 EQ PUSH2 0x29E5 JUMPI PUSH1 0x0 DUP1 REVERT JUMPDEST POP JUMP JUMPDEST PUSH2 0x29F1 DUP2 PUSH2 0x2553 JUMP JUMPDEST DUP2 EQ PUSH2 0x29FC JUMPI PUSH1 0x0 DUP1 REVERT JUMPDEST POP JUMP JUMPDEST PUSH2 0x2A08 DUP2 PUSH2 0x257D JUMP JUMPDEST DUP2 EQ PUSH2 0x2A13 JUMPI PUSH1 0x0 DUP1 REVERT JUMPDEST POP JUMP INVALID LOG2 PUSH5 0x6970667358 0x22 SLT KECCAK256 0xEF PUSH6 0xE1A97AEAAEDA 0x1F 0x28 0x1E 0xA6 0xBE MLOAD 0xAB 0x5C LOG1 0xE0 0xBC PUSH6 0xE5769F9677DA 0xD6 SWAP14 DUP6 SMOD 0xAE PUSH2 0x6473 PUSH16 0x6C634300080400330000000000000000 "
    }
  }
}